{
	"data": {
		"bytecode": {
			"linkReferences": {},
			"object": "6101a0604052348015610010575f5ffd5b50604051612bbf380380612bbf833981810160405281019061003291906104d0565b8860039081610041919061080b565b508760049081610051919061080b565b508660059081610061919061080b565b508560069081610071919061080b565b50601260ff1660808160ff16815250507dffff000000000000000000000000000000000000000000000000000000005f1b60a081815250508161ffff166101008161ffff16815250508363ffffffff1660c08163ffffffff1681525050600a8363ffffffff161015610118576040517f08c379a000000000000000000000000000000000000000000000000000000000815260040161010f90610934565b60405180910390fd5b8263ffffffff1660e08163ffffffff1681525050601961ffff166101208161ffff168152505061019061ffff166101408161ffff16815250507bffff00000000000000000000000000000000000000000000000000006101808181525050633b9aca007fffffffffffffffffffffffffffffffffffffffffffffffffffffffffffffffff6101a691906109ac565b61018051111580156101bc57506103e861018051115b6101fb576040517f08c379a00000000000000000000000000000000000000000000000000000000081526004016101f290610a26565b60405180910390fd5b5f5f1b600781905550670de0b6b3a7640000856102189190610a44565b60098190555083600b5f6101000a81548163ffffffff021916908363ffffffff1602179055506103e8600a8190555060648160ff161061028d576040517f08c379a000000000000000000000000000000000000000000000000000000000815260040161028490610acf565b60405180910390fd5b8060ff166101608160ff1681525050505050505050505050610aed565b5f604051905090565b5f5ffd5b5f5ffd5b5f5ffd5b5f5ffd5b5f601f19601f8301169050919050565b7f4e487b71000000000000000000000000000000000000000000000000000000005f52604160045260245ffd5b610309826102c3565b810181811067ffffffffffffffff82111715610328576103276102d3565b5b80604052505050565b5f61033a6102aa565b90506103468282610300565b919050565b5f67ffffffffffffffff821115610365576103646102d3565b5b61036e826102c3565b9050602081019050919050565b8281835e5f83830152505050565b5f61039b6103968461034b565b610331565b9050828152602081018484840111156103b7576103b66102bf565b5b6103c284828561037b565b509392505050565b5f82601f8301126103de576103dd6102bb565b5b81516103ee848260208601610389565b91505092915050565b5f819050919050565b610409816103f7565b8114610413575f5ffd5b50565b5f8151905061042481610400565b92915050565b5f63ffffffff82169050919050565b6104428161042a565b811461044c575f5ffd5b50565b5f8151905061045d81610439565b92915050565b5f61ffff82169050919050565b61047981610463565b8114610483575f5ffd5b50565b5f8151905061049481610470565b92915050565b5f60ff82169050919050565b6104af8161049a565b81146104b9575f5ffd5b50565b5f815190506104ca816104a6565b92915050565b5f5f5f5f5f5f5f5f5f6101208a8c0312156104ee576104ed6102b3565b5b5f8a015167ffffffffffffffff81111561050b5761050a6102b7565b5b6105178c828d016103ca565b99505060208a015167ffffffffffffffff811115610538576105376102b7565b5b6105448c828d016103ca565b98505060408a015167ffffffffffffffff811115610565576105646102b7565b5b6105718c828d016103ca565b97505060608a015167ffffffffffffffff811115610592576105916102b7565b5b61059e8c828d016103ca565b96505060806105af8c828d01610416565b95505060a06105c08c828d0161044f565b94505060c06105d18c828d0161044f565b93505060e06105e28c828d01610486565b9250506101006105f48c828d016104bc565b9150509295985092959850929598565b5f81519050919050565b7f4e487b71000000000000000000000000000000000000000000000000000000005f52602260045260245ffd5b5f600282049050600182168061065257607f821691505b6020821081036106655761066461060e565b5b50919050565b5f819050815f5260205f209050919050565b5f6020601f8301049050919050565b5f82821b905092915050565b5f600883026106c77fffffffffffffffffffffffffffffffffffffffffffffffffffffffffffffffff8261068c565b6106d1868361068c565b95508019841693508086168417925050509392505050565b5f819050919050565b5f61070c610707610702846103f7565b6106e9565b6103f7565b9050919050565b5f819050919050565b610725836106f2565b61073961073182610713565b848454610698565b825550505050565b5f5f905090565b610750610741565b61075b81848461071c565b505050565b5b8181101561077e576107735f82610748565b600181019050610761565b5050565b601f8211156107c3576107948161066b565b61079d8461067d565b810160208510156107ac578190505b6107c06107b88561067d565b830182610760565b50505b505050565b5f82821c905092915050565b5f6107e35f19846008026107c8565b1980831691505092915050565b5f6107fb83836107d4565b9150826002028217905092915050565b61081482610604565b67ffffffffffffffff81111561082d5761082c6102d3565b5b610837825461063b565b610842828285610782565b5f60209050601f831160018114610873575f8415610861578287015190505b61086b85826107f0565b8655506108d2565b601f1984166108818661066b565b5f5b828110156108a857848901518255600182019150602085019450602081019050610883565b868310156108c557848901516108c1601f8916826107d4565b8355505b6001600288020188555050505b505050505050565b5f82825260208201905092915050565b7f57696e646f7720746f6f20736d616c6c2e0000000000000000000000000000005f82015250565b5f61091e6011836108da565b9150610929826108ea565b602082019050919050565b5f6020820190508181035f83015261094b81610912565b9050919050565b7f4e487b71000000000000000000000000000000000000000000000000000000005f52601260045260245ffd5b7f4e487b71000000000000000000000000000000000000000000000000000000005f52601160045260245ffd5b5f6109b6826103f7565b91506109c1836103f7565b9250826109d1576109d0610952565b5b828204905092915050565b7f444946465f434150206f766572666c6f772e00000000000000000000000000005f82015250565b5f610a106012836108da565b9150610a1b826109dc565b602082019050919050565b5f6020820190508181035f830152610a3d81610a04565b9050919050565b5f610a4e826103f7565b9150610a59836103f7565b9250828202610a67816103f7565b91508282048414831517610a7e57610a7d61097f565b5b5092915050565b7f52656465656d2066656520746f6f20686967682e0000000000000000000000005f82015250565b5f610ab96014836108da565b9150610ac482610a85565b602082019050919050565b5f6020820190508181035f830152610ae681610aad565b9050919050565b60805160a05160c05160e0516101005161012051610140516101605161018051612019610ba65f395f8181611757015261178101525f8181610e6f0152610f5501525f81816106250152818161161f015281816116e3015261170e01525f8181610e930152818161168b01526116b601525f81816107e2015261164e01525f8181610bad01528181611249015261155001525f8181610d1f01526112c801525f8181610b2e0152610b5401525f610b0a01526120195ff3fe60806040526004361061017f575f3560e01c80634ff0876a116100d057806395d89b4111610089578063a6e158f811610063578063a6e158f814610559578063a9059cbb14610581578063dd62ed3e146105bd578063f3ccaac0146105f95761017f565b806395d89b41146104db578063965fa21e14610505578063a27dfbdd1461052f5761017f565b80634ff0876a146103db57806357bbcf431461040557806360f96a8f146104215780636a47aa061461044b57806370a08231146104755780637284e416146104b15761017f565b806318160ddd1161013d57806323b872dd1161011757806323b872dd14610321578063313ce5671461035d57806337ef60d41461038757806339148c53146103b15761017f565b806318160ddd146102a357806319cae462146102cd578063228cb733146102f75761017f565b8062b61a7314610183578063010612db146101ad57806306fdde03146101e9578063095ea7b3146102135780630ed8cdc21461024f57806316f8ff8814610279575b5f5ffd5b34801561018e575f5ffd5b50610197610623565b6040516101a49190611819565b60405180910390f35b3480156101b8575f5ffd5b506101d360048036038101906101ce9190611869565b610647565b6040516101e091906118a3565b60405180910390f35b3480156101f4575f5ffd5b506101fd610667565b60405161020a919061192c565b60405180910390f35b34801561021e575f5ffd5b50610239600480360381019061023491906119a6565b6106f3565b60405161024691906119fe565b60405180910390f35b34801561025a575f5ffd5b506102636107e0565b6040516102709190611819565b60405180910390f35b348015610284575f5ffd5b5061028d610804565b60405161029a9190611a35565b60405180910390f35b3480156102ae575f5ffd5b506102b7610819565b6040516102c491906118a3565b60405180910390f35b3480156102d8575f5ffd5b506102e161081f565b6040516102ee91906118a3565b60405180910390f35b348015610302575f5ffd5b5061030b610825565b60405161031891906118a3565b60405180910390f35b34801561032c575f5ffd5b5061034760048036038101906103429190611a4e565b61082b565b60405161035491906119fe565b60405180910390f35b348015610368575f5ffd5b50610371610b08565b60405161037e9190611ab9565b60405180910390f35b348015610392575f5ffd5b5061039b610b2c565b6040516103a89190611aea565b60405180910390f35b3480156103bc575f5ffd5b506103c5610b50565b6040516103d29190611aea565b60405180910390f35b3480156103e6575f5ffd5b506103ef610bab565b6040516103fc9190611a35565b60405180910390f35b61041f600480360381019061041a9190611b2d565b610bcf565b005b34801561042c575f5ffd5b50610435610d17565b6040516104429190611aea565b60405180910390f35b348015610456575f5ffd5b5061045f610d1d565b60405161046c9190611a35565b60405180910390f35b348015610480575f5ffd5b5061049b60048036038101906104969190611b6b565b610d41565b6040516104a891906118a3565b60405180910390f35b3480156104bc575f5ffd5b506104c5610d55565b6040516104d2919061192c565b60405180910390f35b3480156104e6575f5ffd5b506104ef610de1565b6040516104fc919061192c565b60405180910390f35b348015610510575f5ffd5b50610519610e6d565b6040516105269190611ab9565b60405180910390f35b34801561053a575f5ffd5b50610543610e91565b6040516105509190611819565b60405180910390f35b348015610564575f5ffd5b5061057f600480360381019061057a9190611869565b610eb5565b005b34801561058c575f5ffd5b506105a760048036038101906105a291906119a6565b610fed565b6040516105b491906119fe565b60405180910390f35b3480156105c8575f5ffd5b506105e360048036038101906105de9190611b96565b611180565b6040516105f091906118a3565b60405180910390f35b348015610604575f5ffd5b5061060d6111a0565b60405161061a919061192c565b60405180910390f35b7f000000000000000000000000000000000000000000000000000000000000000081565b60088181548110610656575f80fd5b905f5260205f20015f915090505481565b6003805461067490611c01565b80601f01602080910402602001604051908101604052809291908181526020018280546106a090611c01565b80156106eb5780601f106106c2576101008083540402835291602001916106eb565b820191905f5260205f20905b8154815290600101906020018083116106ce57829003601f168201915b505050505081565b5f8160015f3373ffffffffffffffffffffffffffffffffffffffff1673ffffffffffffffffffffffffffffffffffffffff1681526020019081526020015f205f8573ffffffffffffffffffffffffffffffffffffffff1673ffffffffffffffffffffffffffffffffffffffff1681526020019081526020015f20819055508273ffffffffffffffffffffffffffffffffffffffff163373ffffffffffffffffffffffffffffffffffffffff167f8c5be1e5ebec7d5bd14f71427d1e84f3dd0314c0f7b2291e5b200ac8c7c3b925846040516107ce91906118a3565b60405180910390a36001905092915050565b7f000000000000000000000000000000000000000000000000000000000000000081565b600b5f9054906101000a900463ffffffff1681565b60025481565b600a5481565b60095481565b5f815f5f8673ffffffffffffffffffffffffffffffffffffffff1673ffffffffffffffffffffffffffffffffffffffff1681526020019081526020015f205410156108ab576040517f08c379a00000000000000000000000000000000000000000000000000000000081526004016108a290611c7b565b60405180910390fd5b8160015f8673ffffffffffffffffffffffffffffffffffffffff1673ffffffffffffffffffffffffffffffffffffffff1681526020019081526020015f205f3373ffffffffffffffffffffffffffffffffffffffff1673ffffffffffffffffffffffffffffffffffffffff1681526020019081526020015f20541015610966576040517f08c379a000000000000000000000000000000000000000000000000000000000815260040161095d90611ce3565b60405180910390fd5b815f5f8573ffffffffffffffffffffffffffffffffffffffff1673ffffffffffffffffffffffffffffffffffffffff1681526020019081526020015f205f8282546109b19190611d2e565b92505081905550815f5f8673ffffffffffffffffffffffffffffffffffffffff1673ffffffffffffffffffffffffffffffffffffffff1681526020019081526020015f205f828254610a039190611d61565b925050819055508160015f8673ffffffffffffffffffffffffffffffffffffffff1673ffffffffffffffffffffffffffffffffffffffff1681526020019081526020015f205f3373ffffffffffffffffffffffffffffffffffffffff1673ffffffffffffffffffffffffffffffffffffffff1681526020019081526020015f205f828254610a919190611d61565b925050819055508273ffffffffffffffffffffffffffffffffffffffff168473ffffffffffffffffffffffffffffffffffffffff167fddf252ad1be2c89b69c2b068fc378daa952ba7f163c4a11628f55a4df523b3ef84604051610af591906118a3565b60405180910390a3600190509392505050565b7f000000000000000000000000000000000000000000000000000000000000000081565b7f000000000000000000000000000000000000000000000000000000000000000081565b5f5f7f00000000000000000000000000000000000000000000000000000000000000005f1c90505f600a546103e883610b899190611d94565b610b939190611e02565b90505f8103610ba157600190505b805f1b9250505090565b7f000000000000000000000000000000000000000000000000000000000000000081565b5f6007543383604051602001610be793929190611eb7565b6040516020818303038152906040528051906020012090505f633b9aca00600a54610c129190611d94565b90508382148015610c285750610c278461122c565b5b8015610c345750803410155b610c73576040517f08c379a0000000000000000000000000000000000000000000000000000000008152600401610c6a90611f3d565b60405180910390fd5b610c7b611247565b600842908060018154018082558091505060019003905f5260205f20015f909190919091505583600781905550610cb43360095461134e565b5f8134610cc19190611d61565b90505f811115610d10573373ffffffffffffffffffffffffffffffffffffffff166108fc8290811502906040515f60405180830381858888f19350505050158015610d0e573d5f5f3e3d5ffd5b505b5050505050565b60075481565b7f000000000000000000000000000000000000000000000000000000000000000081565b5f602052805f5260405f205f915090505481565b60068054610d6290611c01565b80601f0160208091040260200160405190810160405280929190818152602001828054610d8e90611c01565b8015610dd95780601f10610db057610100808354040283529160200191610dd9565b820191905f5260205f20905b815481529060010190602001808311610dbc57829003601f168201915b505050505081565b60048054610dee90611c01565b80601f0160208091040260200160405190810160405280929190818152602001828054610e1a90611c01565b8015610e655780601f10610e3c57610100808354040283529160200191610e65565b820191905f5260205f20905b815481529060010190602001808311610e4857829003601f168201915b505050505081565b7f000000000000000000000000000000000000000000000000000000000000000081565b7f000000000000000000000000000000000000000000000000000000000000000081565b805f5f3373ffffffffffffffffffffffffffffffffffffffff1673ffffffffffffffffffffffffffffffffffffffff1681526020019081526020015f20541015610f34576040517f08c379a0000000000000000000000000000000000000000000000000000000008152600401610f2b90611c7b565b60405180910390fd5b5f6002548247610f449190611d94565b610f4e9190611e02565b90505f60647f00000000000000000000000000000000000000000000000000000000000000006064610f809190611f5b565b60ff1683610f8e9190611d94565b610f989190611e02565b9050610fa4338461140a565b3373ffffffffffffffffffffffffffffffffffffffff166108fc8290811502906040515f60405180830381858888f19350505050158015610fe7573d5f5f3e3d5ffd5b50505050565b5f815f5f3373ffffffffffffffffffffffffffffffffffffffff1673ffffffffffffffffffffffffffffffffffffffff1681526020019081526020015f2054101561106d576040517f08c379a000000000000000000000000000000000000000000000000000000000815260040161106490611c7b565b60405180910390fd5b815f5f3373ffffffffffffffffffffffffffffffffffffffff1673ffffffffffffffffffffffffffffffffffffffff1681526020019081526020015f205f8282546110b89190611d61565b92505081905550815f5f8573ffffffffffffffffffffffffffffffffffffffff1673ffffffffffffffffffffffffffffffffffffffff1681526020019081526020015f205f82825461110a9190611d2e565b925050819055508273ffffffffffffffffffffffffffffffffffffffff163373ffffffffffffffffffffffffffffffffffffffff167fddf252ad1be2c89b69c2b068fc378daa952ba7f163c4a11628f55a4df523b3ef8460405161116e91906118a3565b60405180910390a36001905092915050565b6001602052815f5260405f20602052805f5260405f205f91509150505481565b600580546111ad90611c01565b80601f01602080910402602001604051908101604052809291908181526020018280546111d990611c01565b80156112245780601f106111fb57610100808354040283529160200191611224565b820191905f5260205f20905b81548152906001019060200180831161120757829003601f168201915b505050505081565b5f5f611236610b50565b5f1c905080835f1c10915050919050565b7f000000000000000000000000000000000000000000000000000000000000000063ffffffff166008805490500361128f57611281611545565b60085f61128e91906117c4565b5b5f600b5f9054906101000a900463ffffffff1663ffffffff160361130b57600260095f8282546112bf9190611e02565b925050819055507f0000000000000000000000000000000000000000000000000000000000000000600b5f6101000a81548163ffffffff021916908363ffffffff16021790555061134c565b600b5f81819054906101000a900463ffffffff168092919061132c90611f8f565b91906101000a81548163ffffffff021916908363ffffffff160217905550505b565b805f5f8473ffffffffffffffffffffffffffffffffffffffff1673ffffffffffffffffffffffffffffffffffffffff1681526020019081526020015f205f8282546113999190611d2e565b925050819055508060025f8282546113b19190611d2e565b925050819055508173ffffffffffffffffffffffffffffffffffffffff167f0f6798a560793a54c3bcfe86a93cde1e73087d944c0ea20544137d4121396885826040516113fe91906118a3565b60405180910390a25050565b805f5f8473ffffffffffffffffffffffffffffffffffffffff1673ffffffffffffffffffffffffffffffffffffffff1681526020019081526020015f20541015611489576040517f08c379a000000000000000000000000000000000000000000000000000000000815260040161148090611c7b565b60405180910390fd5b805f5f8473ffffffffffffffffffffffffffffffffffffffff1673ffffffffffffffffffffffffffffffffffffffff1681526020019081526020015f205f8282546114d49190611d61565b925050819055508060025f8282546114ec9190611d61565b925050819055508173ffffffffffffffffffffffffffffffffffffffff167fcc16f5dbb4873280815c1ee09dbd06736cffcc184412cf7a71a0fdb75d397ca58260405161153991906118a3565b60405180910390a25050565b5f60088054905090507f000000000000000000000000000000000000000000000000000000000000000063ffffffff1681101561158257506117c2565b5f5f600190505b828110156115f95760086001826115a09190611d61565b815481106115b1576115b0611fb6565b5b905f5260205f200154600882815481106115ce576115cd611fb6565b5b905f5260205f2001546115e19190611d61565b826115ec9190611d2e565b9150806001019050611589565b505f6001836116089190611d61565b826116139190611e02565b90505f5f8203611649577f000000000000000000000000000000000000000000000000000000000000000061ffff169050611688565b8160647f000000000000000000000000000000000000000000000000000000000000000061ffff1661167b9190611d94565b6116859190611e02565b90505b807f000000000000000000000000000000000000000000000000000000000000000061ffff1611156116e0577f000000000000000000000000000000000000000000000000000000000000000061ffff169050611735565b807f000000000000000000000000000000000000000000000000000000000000000061ffff161015611734577f000000000000000000000000000000000000000000000000000000000000000061ffff1690505b5b606481600a546117459190611d94565b61174f9190611e02565b600a819055507f0000000000000000000000000000000000000000000000000000000000000000600a5411156117a7577f0000000000000000000000000000000000000000000000000000000000000000600a819055505b6103e8600a5410156117bd576103e8600a819055505b505050505b565b5080545f8255905f5260205f20908101906117df91906117e2565b50565b5b808211156117f9575f815f9055506001016117e3565b5090565b5f61ffff82169050919050565b611813816117fd565b82525050565b5f60208201905061182c5f83018461180a565b92915050565b5f5ffd5b5f819050919050565b61184881611836565b8114611852575f5ffd5b50565b5f813590506118638161183f565b92915050565b5f6020828403121561187e5761187d611832565b5b5f61188b84828501611855565b91505092915050565b61189d81611836565b82525050565b5f6020820190506118b65f830184611894565b92915050565b5f81519050919050565b5f82825260208201905092915050565b8281835e5f83830152505050565b5f601f19601f8301169050919050565b5f6118fe826118bc565b61190881856118c6565b93506119188185602086016118d6565b611921816118e4565b840191505092915050565b5f6020820190508181035f83015261194481846118f4565b905092915050565b5f73ffffffffffffffffffffffffffffffffffffffff82169050919050565b5f6119758261194c565b9050919050565b6119858161196b565b811461198f575f5ffd5b50565b5f813590506119a08161197c565b92915050565b5f5f604083850312156119bc576119bb611832565b5b5f6119c985828601611992565b92505060206119da85828601611855565b9150509250929050565b5f8115159050919050565b6119f8816119e4565b82525050565b5f602082019050611a115f8301846119ef565b92915050565b5f63ffffffff82169050919050565b611a2f81611a17565b82525050565b5f602082019050611a485f830184611a26565b92915050565b5f5f5f60608486031215611a6557611a64611832565b5b5f611a7286828701611992565b9350506020611a8386828701611992565b9250506040611a9486828701611855565b9150509250925092565b5f60ff82169050919050565b611ab381611a9e565b82525050565b5f602082019050611acc5f830184611aaa565b92915050565b5f819050919050565b611ae481611ad2565b82525050565b5f602082019050611afd5f830184611adb565b92915050565b611b0c81611ad2565b8114611b16575f5ffd5b50565b5f81359050611b2781611b03565b92915050565b5f5f60408385031215611b4357611b42611832565b5b5f611b5085828601611b19565b9250506020611b6185828601611855565b9150509250929050565b5f60208284031215611b8057611b7f611832565b5b5f611b8d84828501611992565b91505092915050565b5f5f60408385031215611bac57611bab611832565b5b5f611bb985828601611992565b9250506020611bca85828601611992565b9150509250929050565b7f4e487b71000000000000000000000000000000000000000000000000000000005f52602260045260245ffd5b5f6002820490506001821680611c1857607f821691505b602082108103611c2b57611c2a611bd4565b5b50919050565b7f42616c616e636520746f6f206c6f772e000000000000000000000000000000005f82015250565b5f611c656010836118c6565b9150611c7082611c31565b602082019050919050565b5f6020820190508181035f830152611c9281611c59565b9050919050565b7f416c6c6f77616e636520746f6f206c6f772e00000000000000000000000000005f82015250565b5f611ccd6012836118c6565b9150611cd882611c99565b602082019050919050565b5f6020820190508181035f830152611cfa81611cc1565b9050919050565b7f4e487b71000000000000000000000000000000000000000000000000000000005f52601160045260245ffd5b5f611d3882611836565b9150611d4383611836565b9250828201905080821115611d5b57611d5a611d01565b5b92915050565b5f611d6b82611836565b9150611d7683611836565b9250828203905081811115611d8e57611d8d611d01565b5b92915050565b5f611d9e82611836565b9150611da983611836565b9250828202611db781611836565b91508282048414831517611dce57611dcd611d01565b5b5092915050565b7f4e487b71000000000000000000000000000000000000000000000000000000005f52601260045260245ffd5b5f611e0c82611836565b9150611e1783611836565b925082611e2757611e26611dd5565b5b828204905092915050565b5f819050919050565b611e4c611e4782611ad2565b611e32565b82525050565b5f8160601b9050919050565b5f611e6882611e52565b9050919050565b5f611e7982611e5e565b9050919050565b611e91611e8c8261196b565b611e6f565b82525050565b5f819050919050565b611eb1611eac82611836565b611e97565b82525050565b5f611ec28286611e3b565b602082019150611ed28285611e80565b601482019150611ee28284611ea0565b602082019150819050949350505050565b7f4f727068616e65642e00000000000000000000000000000000000000000000005f82015250565b5f611f276009836118c6565b9150611f3282611ef3565b602082019050919050565b5f6020820190508181035f830152611f5481611f1b565b9050919050565b5f611f6582611a9e565b9150611f7083611a9e565b9250828203905060ff811115611f8957611f88611d01565b5b92915050565b5f611f9982611a17565b91505f8203611fab57611faa611d01565b5b600182039050919050565b7f4e487b71000000000000000000000000000000000000000000000000000000005f52603260045260245ffdfea26469706673582212200471bdcec6ee824c13b57106c89aaab187651d9955650bfacf737f421399c01b64736f6c634300081e0033",
			"opcodes": "PUSH2 0x1A0 PUSH1 0x40 MSTORE CALLVALUE DUP1 ISZERO PUSH2 0x10 JUMPI PUSH0 PUSH0 REVERT JUMPDEST POP PUSH1 0x40 MLOAD PUSH2 0x2BBF CODESIZE SUB DUP1 PUSH2 0x2BBF DUP4 CODECOPY DUP2 DUP2 ADD PUSH1 0x40 MSTORE DUP2 ADD SWAP1 PUSH2 0x32 SWAP2 SWAP1 PUSH2 0x4D0 JUMP JUMPDEST DUP9 PUSH1 0x3 SWAP1 DUP2 PUSH2 0x41 SWAP2 SWAP1 PUSH2 0x80B JUMP JUMPDEST POP DUP8 PUSH1 0x4 SWAP1 DUP2 PUSH2 0x51 SWAP2 SWAP1 PUSH2 0x80B JUMP JUMPDEST POP DUP7 PUSH1 0x5 SWAP1 DUP2 PUSH2 0x61 SWAP2 SWAP1 PUSH2 0x80B JUMP JUMPDEST POP DUP6 PUSH1 0x6 SWAP1 DUP2 PUSH2 0x71 SWAP2 SWAP1 PUSH2 0x80B JUMP JUMPDEST POP PUSH1 0x12 PUSH1 0xFF AND PUSH1 0x80 DUP2 PUSH1 0xFF AND DUP2 MSTORE POP POP PUSH30 0xFFFF00000000000000000000000000000000000000000000000000000000 PUSH0 SHL PUSH1 0xA0 DUP2 DUP2 MSTORE POP POP DUP2 PUSH2 0xFFFF AND PUSH2 0x100 DUP2 PUSH2 0xFFFF AND DUP2 MSTORE POP POP DUP4 PUSH4 0xFFFFFFFF AND PUSH1 0xC0 DUP2 PUSH4 0xFFFFFFFF AND DUP2 MSTORE POP POP PUSH1 0xA DUP4 PUSH4 0xFFFFFFFF AND LT ISZERO PUSH2 0x118 JUMPI PUSH1 0x40 MLOAD PUSH32 0x8C379A000000000000000000000000000000000000000000000000000000000 DUP2 MSTORE PUSH1 0x4 ADD PUSH2 0x10F SWAP1 PUSH2 0x934 JUMP JUMPDEST PUSH1 0x40 MLOAD DUP1 SWAP2 SUB SWAP1 REVERT JUMPDEST DUP3 PUSH4 0xFFFFFFFF AND PUSH1 0xE0 DUP2 PUSH4 0xFFFFFFFF AND DUP2 MSTORE POP POP PUSH1 0x19 PUSH2 0xFFFF AND PUSH2 0x120 DUP2 PUSH2 0xFFFF AND DUP2 MSTORE POP POP PUSH2 0x190 PUSH2 0xFFFF AND PUSH2 0x140 DUP2 PUSH2 0xFFFF AND DUP2 MSTORE POP POP PUSH28 0xFFFF0000000000000000000000000000000000000000000000000000 PUSH2 0x180 DUP2 DUP2 MSTORE POP POP PUSH4 0x3B9ACA00 PUSH32 0xFFFFFFFFFFFFFFFFFFFFFFFFFFFFFFFFFFFFFFFFFFFFFFFFFFFFFFFFFFFFFFFF PUSH2 0x1A6 SWAP2 SWAP1 PUSH2 0x9AC JUMP JUMPDEST PUSH2 0x180 MLOAD GT ISZERO DUP1 ISZERO PUSH2 0x1BC JUMPI POP PUSH2 0x3E8 PUSH2 0x180 MLOAD GT JUMPDEST PUSH2 0x1FB JUMPI PUSH1 0x40 MLOAD PUSH32 0x8C379A000000000000000000000000000000000000000000000000000000000 DUP2 MSTORE PUSH1 0x4 ADD PUSH2 0x1F2 SWAP1 PUSH2 0xA26 JUMP JUMPDEST PUSH1 0x40 MLOAD DUP1 SWAP2 SUB SWAP1 REVERT JUMPDEST PUSH0 PUSH0 SHL PUSH1 0x7 DUP2 SWAP1 SSTORE POP PUSH8 0xDE0B6B3A7640000 DUP6 PUSH2 0x218 SWAP2 SWAP1 PUSH2 0xA44 JUMP JUMPDEST PUSH1 0x9 DUP2 SWAP1 SSTORE POP DUP4 PUSH1 0xB PUSH0 PUSH2 0x100 EXP DUP2 SLOAD DUP2 PUSH4 0xFFFFFFFF MUL NOT AND SWAP1 DUP4 PUSH4 0xFFFFFFFF AND MUL OR SWAP1 SSTORE POP PUSH2 0x3E8 PUSH1 0xA DUP2 SWAP1 SSTORE POP PUSH1 0x64 DUP2 PUSH1 0xFF AND LT PUSH2 0x28D JUMPI PUSH1 0x40 MLOAD PUSH32 0x8C379A000000000000000000000000000000000000000000000000000000000 DUP2 MSTORE PUSH1 0x4 ADD PUSH2 0x284 SWAP1 PUSH2 0xACF JUMP JUMPDEST PUSH1 0x40 MLOAD DUP1 SWAP2 SUB SWAP1 REVERT JUMPDEST DUP1 PUSH1 0xFF AND PUSH2 0x160 DUP2 PUSH1 0xFF AND DUP2 MSTORE POP POP POP POP POP POP POP POP POP POP POP PUSH2 0xAED JUMP JUMPDEST PUSH0 PUSH1 0x40 MLOAD SWAP1 POP SWAP1 JUMP JUMPDEST PUSH0 PUSH0 REVERT JUMPDEST PUSH0 PUSH0 REVERT JUMPDEST PUSH0 PUSH0 REVERT JUMPDEST PUSH0 PUSH0 REVERT JUMPDEST PUSH0 PUSH1 0x1F NOT PUSH1 0x1F DUP4 ADD AND SWAP1 POP SWAP2 SWAP1 POP JUMP JUMPDEST PUSH32 0x4E487B7100000000000000000000000000000000000000000000000000000000 PUSH0 MSTORE PUSH1 0x41 PUSH1 0x4 MSTORE PUSH1 0x24 PUSH0 REVERT JUMPDEST PUSH2 0x309 DUP3 PUSH2 0x2C3 JUMP JUMPDEST DUP2 ADD DUP2 DUP2 LT PUSH8 0xFFFFFFFFFFFFFFFF DUP3 GT OR ISZERO PUSH2 0x328 JUMPI PUSH2 0x327 PUSH2 0x2D3 JUMP JUMPDEST JUMPDEST DUP1 PUSH1 0x40 MSTORE POP POP POP JUMP JUMPDEST PUSH0 PUSH2 0x33A PUSH2 0x2AA JUMP JUMPDEST SWAP1 POP PUSH2 0x346 DUP3 DUP3 PUSH2 0x300 JUMP JUMPDEST SWAP2 SWAP1 POP JUMP JUMPDEST PUSH0 PUSH8 0xFFFFFFFFFFFFFFFF DUP3 GT ISZERO PUSH2 0x365 JUMPI PUSH2 0x364 PUSH2 0x2D3 JUMP JUMPDEST JUMPDEST PUSH2 0x36E DUP3 PUSH2 0x2C3 JUMP JUMPDEST SWAP1 POP PUSH1 0x20 DUP2 ADD SWAP1 POP SWAP2 SWAP1 POP JUMP JUMPDEST DUP3 DUP2 DUP4 MCOPY PUSH0 DUP4 DUP4 ADD MSTORE POP POP POP JUMP JUMPDEST PUSH0 PUSH2 0x39B PUSH2 0x396 DUP5 PUSH2 0x34B JUMP JUMPDEST PUSH2 0x331 JUMP JUMPDEST SWAP1 POP DUP3 DUP2 MSTORE PUSH1 0x20 DUP2 ADD DUP5 DUP5 DUP5 ADD GT ISZERO PUSH2 0x3B7 JUMPI PUSH2 0x3B6 PUSH2 0x2BF JUMP JUMPDEST JUMPDEST PUSH2 0x3C2 DUP5 DUP3 DUP6 PUSH2 0x37B JUMP JUMPDEST POP SWAP4 SWAP3 POP POP POP JUMP JUMPDEST PUSH0 DUP3 PUSH1 0x1F DUP4 ADD SLT PUSH2 0x3DE JUMPI PUSH2 0x3DD PUSH2 0x2BB JUMP JUMPDEST JUMPDEST DUP2 MLOAD PUSH2 0x3EE DUP5 DUP3 PUSH1 0x20 DUP7 ADD PUSH2 0x389 JUMP JUMPDEST SWAP2 POP POP SWAP3 SWAP2 POP POP JUMP JUMPDEST PUSH0 DUP2 SWAP1 POP SWAP2 SWAP1 POP JUMP JUMPDEST PUSH2 0x409 DUP2 PUSH2 0x3F7 JUMP JUMPDEST DUP2 EQ PUSH2 0x413 JUMPI PUSH0 PUSH0 REVERT JUMPDEST POP JUMP JUMPDEST PUSH0 DUP2 MLOAD SWAP1 POP PUSH2 0x424 DUP2 PUSH2 0x400 JUMP JUMPDEST SWAP3 SWAP2 POP POP JUMP JUMPDEST PUSH0 PUSH4 0xFFFFFFFF DUP3 AND SWAP1 POP SWAP2 SWAP1 POP JUMP JUMPDEST PUSH2 0x442 DUP2 PUSH2 0x42A JUMP JUMPDEST DUP2 EQ PUSH2 0x44C JUMPI PUSH0 PUSH0 REVERT JUMPDEST POP JUMP JUMPDEST PUSH0 DUP2 MLOAD SWAP1 POP PUSH2 0x45D DUP2 PUSH2 0x439 JUMP JUMPDEST SWAP3 SWAP2 POP POP JUMP JUMPDEST PUSH0 PUSH2 0xFFFF DUP3 AND SWAP1 POP SWAP2 SWAP1 POP JUMP JUMPDEST PUSH2 0x479 DUP2 PUSH2 0x463 JUMP JUMPDEST DUP2 EQ PUSH2 0x483 JUMPI PUSH0 PUSH0 REVERT JUMPDEST POP JUMP JUMPDEST PUSH0 DUP2 MLOAD SWAP1 POP PUSH2 0x494 DUP2 PUSH2 0x470 JUMP JUMPDEST SWAP3 SWAP2 POP POP JUMP JUMPDEST PUSH0 PUSH1 0xFF DUP3 AND SWAP1 POP SWAP2 SWAP1 POP JUMP JUMPDEST PUSH2 0x4AF DUP2 PUSH2 0x49A JUMP JUMPDEST DUP2 EQ PUSH2 0x4B9 JUMPI PUSH0 PUSH0 REVERT JUMPDEST POP JUMP JUMPDEST PUSH0 DUP2 MLOAD SWAP1 POP PUSH2 0x4CA DUP2 PUSH2 0x4A6 JUMP JUMPDEST SWAP3 SWAP2 POP POP JUMP JUMPDEST PUSH0 PUSH0 PUSH0 PUSH0 PUSH0 PUSH0 PUSH0 PUSH0 PUSH0 PUSH2 0x120 DUP11 DUP13 SUB SLT ISZERO PUSH2 0x4EE JUMPI PUSH2 0x4ED PUSH2 0x2B3 JUMP JUMPDEST JUMPDEST PUSH0 DUP11 ADD MLOAD PUSH8 0xFFFFFFFFFFFFFFFF DUP2 GT ISZERO PUSH2 0x50B JUMPI PUSH2 0x50A PUSH2 0x2B7 JUMP JUMPDEST JUMPDEST PUSH2 0x517 DUP13 DUP3 DUP14 ADD PUSH2 0x3CA JUMP JUMPDEST SWAP10 POP POP PUSH1 0x20 DUP11 ADD MLOAD PUSH8 0xFFFFFFFFFFFFFFFF DUP2 GT ISZERO PUSH2 0x538 JUMPI PUSH2 0x537 PUSH2 0x2B7 JUMP JUMPDEST JUMPDEST PUSH2 0x544 DUP13 DUP3 DUP14 ADD PUSH2 0x3CA JUMP JUMPDEST SWAP9 POP POP PUSH1 0x40 DUP11 ADD MLOAD PUSH8 0xFFFFFFFFFFFFFFFF DUP2 GT ISZERO PUSH2 0x565 JUMPI PUSH2 0x564 PUSH2 0x2B7 JUMP JUMPDEST JUMPDEST PUSH2 0x571 DUP13 DUP3 DUP14 ADD PUSH2 0x3CA JUMP JUMPDEST SWAP8 POP POP PUSH1 0x60 DUP11 ADD MLOAD PUSH8 0xFFFFFFFFFFFFFFFF DUP2 GT ISZERO PUSH2 0x592 JUMPI PUSH2 0x591 PUSH2 0x2B7 JUMP JUMPDEST JUMPDEST PUSH2 0x59E DUP13 DUP3 DUP14 ADD PUSH2 0x3CA JUMP JUMPDEST SWAP7 POP POP PUSH1 0x80 PUSH2 0x5AF DUP13 DUP3 DUP14 ADD PUSH2 0x416 JUMP JUMPDEST SWAP6 POP POP PUSH1 0xA0 PUSH2 0x5C0 DUP13 DUP3 DUP14 ADD PUSH2 0x44F JUMP JUMPDEST SWAP5 POP POP PUSH1 0xC0 PUSH2 0x5D1 DUP13 DUP3 DUP14 ADD PUSH2 0x44F JUMP JUMPDEST SWAP4 POP POP PUSH1 0xE0 PUSH2 0x5E2 DUP13 DUP3 DUP14 ADD PUSH2 0x486 JUMP JUMPDEST SWAP3 POP POP PUSH2 0x100 PUSH2 0x5F4 DUP13 DUP3 DUP14 ADD PUSH2 0x4BC JUMP JUMPDEST SWAP2 POP POP SWAP3 SWAP6 SWAP9 POP SWAP3 SWAP6 SWAP9 POP SWAP3 SWAP6 SWAP9 JUMP JUMPDEST PUSH0 DUP2 MLOAD SWAP1 POP SWAP2 SWAP1 POP JUMP JUMPDEST PUSH32 0x4E487B7100000000000000000000000000000000000000000000000000000000 PUSH0 MSTORE PUSH1 0x22 PUSH1 0x4 MSTORE PUSH1 0x24 PUSH0 REVERT JUMPDEST PUSH0 PUSH1 0x2 DUP3 DIV SWAP1 POP PUSH1 0x1 DUP3 AND DUP1 PUSH2 0x652 JUMPI PUSH1 0x7F DUP3 AND SWAP2 POP JUMPDEST PUSH1 0x20 DUP3 LT DUP2 SUB PUSH2 0x665 JUMPI PUSH2 0x664 PUSH2 0x60E JUMP JUMPDEST JUMPDEST POP SWAP2 SWAP1 POP JUMP JUMPDEST PUSH0 DUP2 SWAP1 POP DUP2 PUSH0 MSTORE PUSH1 0x20 PUSH0 KECCAK256 SWAP1 POP SWAP2 SWAP1 POP JUMP JUMPDEST PUSH0 PUSH1 0x20 PUSH1 0x1F DUP4 ADD DIV SWAP1 POP SWAP2 SWAP1 POP JUMP JUMPDEST PUSH0 DUP3 DUP3 SHL SWAP1 POP SWAP3 SWAP2 POP POP JUMP JUMPDEST PUSH0 PUSH1 0x8 DUP4 MUL PUSH2 0x6C7 PUSH32 0xFFFFFFFFFFFFFFFFFFFFFFFFFFFFFFFFFFFFFFFFFFFFFFFFFFFFFFFFFFFFFFFF DUP3 PUSH2 0x68C JUMP JUMPDEST PUSH2 0x6D1 DUP7 DUP4 PUSH2 0x68C JUMP JUMPDEST SWAP6 POP DUP1 NOT DUP5 AND SWAP4 POP DUP1 DUP7 AND DUP5 OR SWAP3 POP POP POP SWAP4 SWAP3 POP POP POP JUMP JUMPDEST PUSH0 DUP2 SWAP1 POP SWAP2 SWAP1 POP JUMP JUMPDEST PUSH0 PUSH2 0x70C PUSH2 0x707 PUSH2 0x702 DUP5 PUSH2 0x3F7 JUMP JUMPDEST PUSH2 0x6E9 JUMP JUMPDEST PUSH2 0x3F7 JUMP JUMPDEST SWAP1 POP SWAP2 SWAP1 POP JUMP JUMPDEST PUSH0 DUP2 SWAP1 POP SWAP2 SWAP1 POP JUMP JUMPDEST PUSH2 0x725 DUP4 PUSH2 0x6F2 JUMP JUMPDEST PUSH2 0x739 PUSH2 0x731 DUP3 PUSH2 0x713 JUMP JUMPDEST DUP5 DUP5 SLOAD PUSH2 0x698 JUMP JUMPDEST DUP3 SSTORE POP POP POP POP JUMP JUMPDEST PUSH0 PUSH0 SWAP1 POP SWAP1 JUMP JUMPDEST PUSH2 0x750 PUSH2 0x741 JUMP JUMPDEST PUSH2 0x75B DUP2 DUP5 DUP5 PUSH2 0x71C JUMP JUMPDEST POP POP POP JUMP JUMPDEST JUMPDEST DUP2 DUP2 LT ISZERO PUSH2 0x77E JUMPI PUSH2 0x773 PUSH0 DUP3 PUSH2 0x748 JUMP JUMPDEST PUSH1 0x1 DUP2 ADD SWAP1 POP PUSH2 0x761 JUMP JUMPDEST POP POP JUMP JUMPDEST PUSH1 0x1F DUP3 GT ISZERO PUSH2 0x7C3 JUMPI PUSH2 0x794 DUP2 PUSH2 0x66B JUMP JUMPDEST PUSH2 0x79D DUP5 PUSH2 0x67D JUMP JUMPDEST DUP2 ADD PUSH1 0x20 DUP6 LT ISZERO PUSH2 0x7AC JUMPI DUP2 SWAP1 POP JUMPDEST PUSH2 0x7C0 PUSH2 0x7B8 DUP6 PUSH2 0x67D JUMP JUMPDEST DUP4 ADD DUP3 PUSH2 0x760 JUMP JUMPDEST POP POP JUMPDEST POP POP POP JUMP JUMPDEST PUSH0 DUP3 DUP3 SHR SWAP1 POP SWAP3 SWAP2 POP POP JUMP JUMPDEST PUSH0 PUSH2 0x7E3 PUSH0 NOT DUP5 PUSH1 0x8 MUL PUSH2 0x7C8 JUMP JUMPDEST NOT DUP1 DUP4 AND SWAP2 POP POP SWAP3 SWAP2 POP POP JUMP JUMPDEST PUSH0 PUSH2 0x7FB DUP4 DUP4 PUSH2 0x7D4 JUMP JUMPDEST SWAP2 POP DUP3 PUSH1 0x2 MUL DUP3 OR SWAP1 POP SWAP3 SWAP2 POP POP JUMP JUMPDEST PUSH2 0x814 DUP3 PUSH2 0x604 JUMP JUMPDEST PUSH8 0xFFFFFFFFFFFFFFFF DUP2 GT ISZERO PUSH2 0x82D JUMPI PUSH2 0x82C PUSH2 0x2D3 JUMP JUMPDEST JUMPDEST PUSH2 0x837 DUP3 SLOAD PUSH2 0x63B JUMP JUMPDEST PUSH2 0x842 DUP3 DUP3 DUP6 PUSH2 0x782 JUMP JUMPDEST PUSH0 PUSH1 0x20 SWAP1 POP PUSH1 0x1F DUP4 GT PUSH1 0x1 DUP2 EQ PUSH2 0x873 JUMPI PUSH0 DUP5 ISZERO PUSH2 0x861 JUMPI DUP3 DUP8 ADD MLOAD SWAP1 POP JUMPDEST PUSH2 0x86B DUP6 DUP3 PUSH2 0x7F0 JUMP JUMPDEST DUP7 SSTORE POP PUSH2 0x8D2 JUMP JUMPDEST PUSH1 0x1F NOT DUP5 AND PUSH2 0x881 DUP7 PUSH2 0x66B JUMP JUMPDEST PUSH0 JUMPDEST DUP3 DUP2 LT ISZERO PUSH2 0x8A8 JUMPI DUP5 DUP10 ADD MLOAD DUP3 SSTORE PUSH1 0x1 DUP3 ADD SWAP2 POP PUSH1 0x20 DUP6 ADD SWAP5 POP PUSH1 0x20 DUP2 ADD SWAP1 POP PUSH2 0x883 JUMP JUMPDEST DUP7 DUP4 LT ISZERO PUSH2 0x8C5 JUMPI DUP5 DUP10 ADD MLOAD PUSH2 0x8C1 PUSH1 0x1F DUP10 AND DUP3 PUSH2 0x7D4 JUMP JUMPDEST DUP4 SSTORE POP JUMPDEST PUSH1 0x1 PUSH1 0x2 DUP9 MUL ADD DUP9 SSTORE POP POP POP JUMPDEST POP POP POP POP POP POP JUMP JUMPDEST PUSH0 DUP3 DUP3 MSTORE PUSH1 0x20 DUP3 ADD SWAP1 POP SWAP3 SWAP2 POP POP JUMP JUMPDEST PUSH32 0x57696E646F7720746F6F20736D616C6C2E000000000000000000000000000000 PUSH0 DUP3 ADD MSTORE POP JUMP JUMPDEST PUSH0 PUSH2 0x91E PUSH1 0x11 DUP4 PUSH2 0x8DA JUMP JUMPDEST SWAP2 POP PUSH2 0x929 DUP3 PUSH2 0x8EA JUMP JUMPDEST PUSH1 0x20 DUP3 ADD SWAP1 POP SWAP2 SWAP1 POP JUMP JUMPDEST PUSH0 PUSH1 0x20 DUP3 ADD SWAP1 POP DUP2 DUP2 SUB PUSH0 DUP4 ADD MSTORE PUSH2 0x94B DUP2 PUSH2 0x912 JUMP JUMPDEST SWAP1 POP SWAP2 SWAP1 POP JUMP JUMPDEST PUSH32 0x4E487B7100000000000000000000000000000000000000000000000000000000 PUSH0 MSTORE PUSH1 0x12 PUSH1 0x4 MSTORE PUSH1 0x24 PUSH0 REVERT JUMPDEST PUSH32 0x4E487B7100000000000000000000000000000000000000000000000000000000 PUSH0 MSTORE PUSH1 0x11 PUSH1 0x4 MSTORE PUSH1 0x24 PUSH0 REVERT JUMPDEST PUSH0 PUSH2 0x9B6 DUP3 PUSH2 0x3F7 JUMP JUMPDEST SWAP2 POP PUSH2 0x9C1 DUP4 PUSH2 0x3F7 JUMP JUMPDEST SWAP3 POP DUP3 PUSH2 0x9D1 JUMPI PUSH2 0x9D0 PUSH2 0x952 JUMP JUMPDEST JUMPDEST DUP3 DUP3 DIV SWAP1 POP SWAP3 SWAP2 POP POP JUMP JUMPDEST PUSH32 0x444946465F434150206F766572666C6F772E0000000000000000000000000000 PUSH0 DUP3 ADD MSTORE POP JUMP JUMPDEST PUSH0 PUSH2 0xA10 PUSH1 0x12 DUP4 PUSH2 0x8DA JUMP JUMPDEST SWAP2 POP PUSH2 0xA1B DUP3 PUSH2 0x9DC JUMP JUMPDEST PUSH1 0x20 DUP3 ADD SWAP1 POP SWAP2 SWAP1 POP JUMP JUMPDEST PUSH0 PUSH1 0x20 DUP3 ADD SWAP1 POP DUP2 DUP2 SUB PUSH0 DUP4 ADD MSTORE PUSH2 0xA3D DUP2 PUSH2 0xA04 JUMP JUMPDEST SWAP1 POP SWAP2 SWAP1 POP JUMP JUMPDEST PUSH0 PUSH2 0xA4E DUP3 PUSH2 0x3F7 JUMP JUMPDEST SWAP2 POP PUSH2 0xA59 DUP4 PUSH2 0x3F7 JUMP JUMPDEST SWAP3 POP DUP3 DUP3 MUL PUSH2 0xA67 DUP2 PUSH2 0x3F7 JUMP JUMPDEST SWAP2 POP DUP3 DUP3 DIV DUP5 EQ DUP4 ISZERO OR PUSH2 0xA7E JUMPI PUSH2 0xA7D PUSH2 0x97F JUMP JUMPDEST JUMPDEST POP SWAP3 SWAP2 POP POP JUMP JUMPDEST PUSH32 0x52656465656D2066656520746F6F20686967682E000000000000000000000000 PUSH0 DUP3 ADD MSTORE POP JUMP JUMPDEST PUSH0 PUSH2 0xAB9 PUSH1 0x14 DUP4 PUSH2 0x8DA JUMP JUMPDEST SWAP2 POP PUSH2 0xAC4 DUP3 PUSH2 0xA85 JUMP JUMPDEST PUSH1 0x20 DUP3 ADD SWAP1 POP SWAP2 SWAP1 POP JUMP JUMPDEST PUSH0 PUSH1 0x20 DUP3 ADD SWAP1 POP DUP2 DUP2 SUB PUSH0 DUP4 ADD MSTORE PUSH2 0xAE6 DUP2 PUSH2 0xAAD JUMP JUMPDEST SWAP1 POP SWAP2 SWAP1 POP JUMP JUMPDEST PUSH1 0x80 MLOAD PUSH1 0xA0 MLOAD PUSH1 0xC0 MLOAD PUSH1 0xE0 MLOAD PUSH2 0x100 MLOAD PUSH2 0x120 MLOAD PUSH2 0x140 MLOAD PUSH2 0x160 MLOAD PUSH2 0x180 MLOAD PUSH2 0x2019 PUSH2 0xBA6 PUSH0 CODECOPY PUSH0 DUP2 DUP2 PUSH2 0x1757 ADD MSTORE PUSH2 0x1781 ADD MSTORE PUSH0 DUP2 DUP2 PUSH2 0xE6F ADD MSTORE PUSH2 0xF55 ADD MSTORE PUSH0 DUP2 DUP2 PUSH2 0x625 ADD MSTORE DUP2 DUP2 PUSH2 0x161F ADD MSTORE DUP2 DUP2 PUSH2 0x16E3 ADD MSTORE PUSH2 0x170E ADD MSTORE PUSH0 DUP2 DUP2 PUSH2 0xE93 ADD MSTORE DUP2 DUP2 PUSH2 0x168B ADD MSTORE PUSH2 0x16B6 ADD MSTORE PUSH0 DUP2 DUP2 PUSH2 0x7E2 ADD MSTORE PUSH2 0x164E ADD MSTORE PUSH0 DUP2 DUP2 PUSH2 0xBAD ADD MSTORE DUP2 DUP2 PUSH2 0x1249 ADD MSTORE PUSH2 0x1550 ADD MSTORE PUSH0 DUP2 DUP2 PUSH2 0xD1F ADD MSTORE PUSH2 0x12C8 ADD MSTORE PUSH0 DUP2 DUP2 PUSH2 0xB2E ADD MSTORE PUSH2 0xB54 ADD MSTORE PUSH0 PUSH2 0xB0A ADD MSTORE PUSH2 0x2019 PUSH0 RETURN INVALID PUSH1 0x80 PUSH1 0x40 MSTORE PUSH1 0x4 CALLDATASIZE LT PUSH2 0x17F JUMPI PUSH0 CALLDATALOAD PUSH1 0xE0 SHR DUP1 PUSH4 0x4FF0876A GT PUSH2 0xD0 JUMPI DUP1 PUSH4 0x95D89B41 GT PUSH2 0x89 JUMPI DUP1 PUSH4 0xA6E158F8 GT PUSH2 0x63 JUMPI DUP1 PUSH4 0xA6E158F8 EQ PUSH2 0x559 JUMPI DUP1 PUSH4 0xA9059CBB EQ PUSH2 0x581 JUMPI DUP1 PUSH4 0xDD62ED3E EQ PUSH2 0x5BD JUMPI DUP1 PUSH4 0xF3CCAAC0 EQ PUSH2 0x5F9 JUMPI PUSH2 0x17F JUMP JUMPDEST DUP1 PUSH4 0x95D89B41 EQ PUSH2 0x4DB JUMPI DUP1 PUSH4 0x965FA21E EQ PUSH2 0x505 JUMPI DUP1 PUSH4 0xA27DFBDD EQ PUSH2 0x52F JUMPI PUSH2 0x17F JUMP JUMPDEST DUP1 PUSH4 0x4FF0876A EQ PUSH2 0x3DB JUMPI DUP1 PUSH4 0x57BBCF43 EQ PUSH2 0x405 JUMPI DUP1 PUSH4 0x60F96A8F EQ PUSH2 0x421 JUMPI DUP1 PUSH4 0x6A47AA06 EQ PUSH2 0x44B JUMPI DUP1 PUSH4 0x70A08231 EQ PUSH2 0x475 JUMPI DUP1 PUSH4 0x7284E416 EQ PUSH2 0x4B1 JUMPI PUSH2 0x17F JUMP JUMPDEST DUP1 PUSH4 0x18160DDD GT PUSH2 0x13D JUMPI DUP1 PUSH4 0x23B872DD GT PUSH2 0x117 JUMPI DUP1 PUSH4 0x23B872DD EQ PUSH2 0x321 JUMPI DUP1 PUSH4 0x313CE567 EQ PUSH2 0x35D JUMPI DUP1 PUSH4 0x37EF60D4 EQ PUSH2 0x387 JUMPI DUP1 PUSH4 0x39148C53 EQ PUSH2 0x3B1 JUMPI PUSH2 0x17F JUMP JUMPDEST DUP1 PUSH4 0x18160DDD EQ PUSH2 0x2A3 JUMPI DUP1 PUSH4 0x19CAE462 EQ PUSH2 0x2CD JUMPI DUP1 PUSH4 0x228CB733 EQ PUSH2 0x2F7 JUMPI PUSH2 0x17F JUMP JUMPDEST DUP1 PUSH3 0xB61A73 EQ PUSH2 0x183 JUMPI DUP1 PUSH4 0x10612DB EQ PUSH2 0x1AD JUMPI DUP1 PUSH4 0x6FDDE03 EQ PUSH2 0x1E9 JUMPI DUP1 PUSH4 0x95EA7B3 EQ PUSH2 0x213 JUMPI DUP1 PUSH4 0xED8CDC2 EQ PUSH2 0x24F JUMPI DUP1 PUSH4 0x16F8FF88 EQ PUSH2 0x279 JUMPI JUMPDEST PUSH0 PUSH0 REVERT JUMPDEST CALLVALUE DUP1 ISZERO PUSH2 0x18E JUMPI PUSH0 PUSH0 REVERT JUMPDEST POP PUSH2 0x197 PUSH2 0x623 JUMP JUMPDEST PUSH1 0x40 MLOAD PUSH2 0x1A4 SWAP2 SWAP1 PUSH2 0x1819 JUMP JUMPDEST PUSH1 0x40 MLOAD DUP1 SWAP2 SUB SWAP1 RETURN JUMPDEST CALLVALUE DUP1 ISZERO PUSH2 0x1B8 JUMPI PUSH0 PUSH0 REVERT JUMPDEST POP PUSH2 0x1D3 PUSH1 0x4 DUP1 CALLDATASIZE SUB DUP2 ADD SWAP1 PUSH2 0x1CE SWAP2 SWAP1 PUSH2 0x1869 JUMP JUMPDEST PUSH2 0x647 JUMP JUMPDEST PUSH1 0x40 MLOAD PUSH2 0x1E0 SWAP2 SWAP1 PUSH2 0x18A3 JUMP JUMPDEST PUSH1 0x40 MLOAD DUP1 SWAP2 SUB SWAP1 RETURN JUMPDEST CALLVALUE DUP1 ISZERO PUSH2 0x1F4 JUMPI PUSH0 PUSH0 REVERT JUMPDEST POP PUSH2 0x1FD PUSH2 0x667 JUMP JUMPDEST PUSH1 0x40 MLOAD PUSH2 0x20A SWAP2 SWAP1 PUSH2 0x192C JUMP JUMPDEST PUSH1 0x40 MLOAD DUP1 SWAP2 SUB SWAP1 RETURN JUMPDEST CALLVALUE DUP1 ISZERO PUSH2 0x21E JUMPI PUSH0 PUSH0 REVERT JUMPDEST POP PUSH2 0x239 PUSH1 0x4 DUP1 CALLDATASIZE SUB DUP2 ADD SWAP1 PUSH2 0x234 SWAP2 SWAP1 PUSH2 0x19A6 JUMP JUMPDEST PUSH2 0x6F3 JUMP JUMPDEST PUSH1 0x40 MLOAD PUSH2 0x246 SWAP2 SWAP1 PUSH2 0x19FE JUMP JUMPDEST PUSH1 0x40 MLOAD DUP1 SWAP2 SUB SWAP1 RETURN JUMPDEST CALLVALUE DUP1 ISZERO PUSH2 0x25A JUMPI PUSH0 PUSH0 REVERT JUMPDEST POP PUSH2 0x263 PUSH2 0x7E0 JUMP JUMPDEST PUSH1 0x40 MLOAD PUSH2 0x270 SWAP2 SWAP1 PUSH2 0x1819 JUMP JUMPDEST PUSH1 0x40 MLOAD DUP1 SWAP2 SUB SWAP1 RETURN JUMPDEST CALLVALUE DUP1 ISZERO PUSH2 0x284 JUMPI PUSH0 PUSH0 REVERT JUMPDEST POP PUSH2 0x28D PUSH2 0x804 JUMP JUMPDEST PUSH1 0x40 MLOAD PUSH2 0x29A SWAP2 SWAP1 PUSH2 0x1A35 JUMP JUMPDEST PUSH1 0x40 MLOAD DUP1 SWAP2 SUB SWAP1 RETURN JUMPDEST CALLVALUE DUP1 ISZERO PUSH2 0x2AE JUMPI PUSH0 PUSH0 REVERT JUMPDEST POP PUSH2 0x2B7 PUSH2 0x819 JUMP JUMPDEST PUSH1 0x40 MLOAD PUSH2 0x2C4 SWAP2 SWAP1 PUSH2 0x18A3 JUMP JUMPDEST PUSH1 0x40 MLOAD DUP1 SWAP2 SUB SWAP1 RETURN JUMPDEST CALLVALUE DUP1 ISZERO PUSH2 0x2D8 JUMPI PUSH0 PUSH0 REVERT JUMPDEST POP PUSH2 0x2E1 PUSH2 0x81F JUMP JUMPDEST PUSH1 0x40 MLOAD PUSH2 0x2EE SWAP2 SWAP1 PUSH2 0x18A3 JUMP JUMPDEST PUSH1 0x40 MLOAD DUP1 SWAP2 SUB SWAP1 RETURN JUMPDEST CALLVALUE DUP1 ISZERO PUSH2 0x302 JUMPI PUSH0 PUSH0 REVERT JUMPDEST POP PUSH2 0x30B PUSH2 0x825 JUMP JUMPDEST PUSH1 0x40 MLOAD PUSH2 0x318 SWAP2 SWAP1 PUSH2 0x18A3 JUMP JUMPDEST PUSH1 0x40 MLOAD DUP1 SWAP2 SUB SWAP1 RETURN JUMPDEST CALLVALUE DUP1 ISZERO PUSH2 0x32C JUMPI PUSH0 PUSH0 REVERT JUMPDEST POP PUSH2 0x347 PUSH1 0x4 DUP1 CALLDATASIZE SUB DUP2 ADD SWAP1 PUSH2 0x342 SWAP2 SWAP1 PUSH2 0x1A4E JUMP JUMPDEST PUSH2 0x82B JUMP JUMPDEST PUSH1 0x40 MLOAD PUSH2 0x354 SWAP2 SWAP1 PUSH2 0x19FE JUMP JUMPDEST PUSH1 0x40 MLOAD DUP1 SWAP2 SUB SWAP1 RETURN JUMPDEST CALLVALUE DUP1 ISZERO PUSH2 0x368 JUMPI PUSH0 PUSH0 REVERT JUMPDEST POP PUSH2 0x371 PUSH2 0xB08 JUMP JUMPDEST PUSH1 0x40 MLOAD PUSH2 0x37E SWAP2 SWAP1 PUSH2 0x1AB9 JUMP JUMPDEST PUSH1 0x40 MLOAD DUP1 SWAP2 SUB SWAP1 RETURN JUMPDEST CALLVALUE DUP1 ISZERO PUSH2 0x392 JUMPI PUSH0 PUSH0 REVERT JUMPDEST POP PUSH2 0x39B PUSH2 0xB2C JUMP JUMPDEST PUSH1 0x40 MLOAD PUSH2 0x3A8 SWAP2 SWAP1 PUSH2 0x1AEA JUMP JUMPDEST PUSH1 0x40 MLOAD DUP1 SWAP2 SUB SWAP1 RETURN JUMPDEST CALLVALUE DUP1 ISZERO PUSH2 0x3BC JUMPI PUSH0 PUSH0 REVERT JUMPDEST POP PUSH2 0x3C5 PUSH2 0xB50 JUMP JUMPDEST PUSH1 0x40 MLOAD PUSH2 0x3D2 SWAP2 SWAP1 PUSH2 0x1AEA JUMP JUMPDEST PUSH1 0x40 MLOAD DUP1 SWAP2 SUB SWAP1 RETURN JUMPDEST CALLVALUE DUP1 ISZERO PUSH2 0x3E6 JUMPI PUSH0 PUSH0 REVERT JUMPDEST POP PUSH2 0x3EF PUSH2 0xBAB JUMP JUMPDEST PUSH1 0x40 MLOAD PUSH2 0x3FC SWAP2 SWAP1 PUSH2 0x1A35 JUMP JUMPDEST PUSH1 0x40 MLOAD DUP1 SWAP2 SUB SWAP1 RETURN JUMPDEST PUSH2 0x41F PUSH1 0x4 DUP1 CALLDATASIZE SUB DUP2 ADD SWAP1 PUSH2 0x41A SWAP2 SWAP1 PUSH2 0x1B2D JUMP JUMPDEST PUSH2 0xBCF JUMP JUMPDEST STOP JUMPDEST CALLVALUE DUP1 ISZERO PUSH2 0x42C JUMPI PUSH0 PUSH0 REVERT JUMPDEST POP PUSH2 0x435 PUSH2 0xD17 JUMP JUMPDEST PUSH1 0x40 MLOAD PUSH2 0x442 SWAP2 SWAP1 PUSH2 0x1AEA JUMP JUMPDEST PUSH1 0x40 MLOAD DUP1 SWAP2 SUB SWAP1 RETURN JUMPDEST CALLVALUE DUP1 ISZERO PUSH2 0x456 JUMPI PUSH0 PUSH0 REVERT JUMPDEST POP PUSH2 0x45F PUSH2 0xD1D JUMP JUMPDEST PUSH1 0x40 MLOAD PUSH2 0x46C SWAP2 SWAP1 PUSH2 0x1A35 JUMP JUMPDEST PUSH1 0x40 MLOAD DUP1 SWAP2 SUB SWAP1 RETURN JUMPDEST CALLVALUE DUP1 ISZERO PUSH2 0x480 JUMPI PUSH0 PUSH0 REVERT JUMPDEST POP PUSH2 0x49B PUSH1 0x4 DUP1 CALLDATASIZE SUB DUP2 ADD SWAP1 PUSH2 0x496 SWAP2 SWAP1 PUSH2 0x1B6B JUMP JUMPDEST PUSH2 0xD41 JUMP JUMPDEST PUSH1 0x40 MLOAD PUSH2 0x4A8 SWAP2 SWAP1 PUSH2 0x18A3 JUMP JUMPDEST PUSH1 0x40 MLOAD DUP1 SWAP2 SUB SWAP1 RETURN JUMPDEST CALLVALUE DUP1 ISZERO PUSH2 0x4BC JUMPI PUSH0 PUSH0 REVERT JUMPDEST POP PUSH2 0x4C5 PUSH2 0xD55 JUMP JUMPDEST PUSH1 0x40 MLOAD PUSH2 0x4D2 SWAP2 SWAP1 PUSH2 0x192C JUMP JUMPDEST PUSH1 0x40 MLOAD DUP1 SWAP2 SUB SWAP1 RETURN JUMPDEST CALLVALUE DUP1 ISZERO PUSH2 0x4E6 JUMPI PUSH0 PUSH0 REVERT JUMPDEST POP PUSH2 0x4EF PUSH2 0xDE1 JUMP JUMPDEST PUSH1 0x40 MLOAD PUSH2 0x4FC SWAP2 SWAP1 PUSH2 0x192C JUMP JUMPDEST PUSH1 0x40 MLOAD DUP1 SWAP2 SUB SWAP1 RETURN JUMPDEST CALLVALUE DUP1 ISZERO PUSH2 0x510 JUMPI PUSH0 PUSH0 REVERT JUMPDEST POP PUSH2 0x519 PUSH2 0xE6D JUMP JUMPDEST PUSH1 0x40 MLOAD PUSH2 0x526 SWAP2 SWAP1 PUSH2 0x1AB9 JUMP JUMPDEST PUSH1 0x40 MLOAD DUP1 SWAP2 SUB SWAP1 RETURN JUMPDEST CALLVALUE DUP1 ISZERO PUSH2 0x53A JUMPI PUSH0 PUSH0 REVERT JUMPDEST POP PUSH2 0x543 PUSH2 0xE91 JUMP JUMPDEST PUSH1 0x40 MLOAD PUSH2 0x550 SWAP2 SWAP1 PUSH2 0x1819 JUMP JUMPDEST PUSH1 0x40 MLOAD DUP1 SWAP2 SUB SWAP1 RETURN JUMPDEST CALLVALUE DUP1 ISZERO PUSH2 0x564 JUMPI PUSH0 PUSH0 REVERT JUMPDEST POP PUSH2 0x57F PUSH1 0x4 DUP1 CALLDATASIZE SUB DUP2 ADD SWAP1 PUSH2 0x57A SWAP2 SWAP1 PUSH2 0x1869 JUMP JUMPDEST PUSH2 0xEB5 JUMP JUMPDEST STOP JUMPDEST CALLVALUE DUP1 ISZERO PUSH2 0x58C JUMPI PUSH0 PUSH0 REVERT JUMPDEST POP PUSH2 0x5A7 PUSH1 0x4 DUP1 CALLDATASIZE SUB DUP2 ADD SWAP1 PUSH2 0x5A2 SWAP2 SWAP1 PUSH2 0x19A6 JUMP JUMPDEST PUSH2 0xFED JUMP JUMPDEST PUSH1 0x40 MLOAD PUSH2 0x5B4 SWAP2 SWAP1 PUSH2 0x19FE JUMP JUMPDEST PUSH1 0x40 MLOAD DUP1 SWAP2 SUB SWAP1 RETURN JUMPDEST CALLVALUE DUP1 ISZERO PUSH2 0x5C8 JUMPI PUSH0 PUSH0 REVERT JUMPDEST POP PUSH2 0x5E3 PUSH1 0x4 DUP1 CALLDATASIZE SUB DUP2 ADD SWAP1 PUSH2 0x5DE SWAP2 SWAP1 PUSH2 0x1B96 JUMP JUMPDEST PUSH2 0x1180 JUMP JUMPDEST PUSH1 0x40 MLOAD PUSH2 0x5F0 SWAP2 SWAP1 PUSH2 0x18A3 JUMP JUMPDEST PUSH1 0x40 MLOAD DUP1 SWAP2 SUB SWAP1 RETURN JUMPDEST CALLVALUE DUP1 ISZERO PUSH2 0x604 JUMPI PUSH0 PUSH0 REVERT JUMPDEST POP PUSH2 0x60D PUSH2 0x11A0 JUMP JUMPDEST PUSH1 0x40 MLOAD PUSH2 0x61A SWAP2 SWAP1 PUSH2 0x192C JUMP JUMPDEST PUSH1 0x40 MLOAD DUP1 SWAP2 SUB SWAP1 RETURN JUMPDEST PUSH32 0x0 DUP2 JUMP JUMPDEST PUSH1 0x8 DUP2 DUP2 SLOAD DUP2 LT PUSH2 0x656 JUMPI PUSH0 DUP1 REVERT JUMPDEST SWAP1 PUSH0 MSTORE PUSH1 0x20 PUSH0 KECCAK256 ADD PUSH0 SWAP2 POP SWAP1 POP SLOAD DUP2 JUMP JUMPDEST PUSH1 0x3 DUP1 SLOAD PUSH2 0x674 SWAP1 PUSH2 0x1C01 JUMP JUMPDEST DUP1 PUSH1 0x1F ADD PUSH1 0x20 DUP1 SWAP2 DIV MUL PUSH1 0x20 ADD PUSH1 0x40 MLOAD SWAP1 DUP2 ADD PUSH1 0x40 MSTORE DUP1 SWAP3 SWAP2 SWAP1 DUP2 DUP2 MSTORE PUSH1 0x20 ADD DUP3 DUP1 SLOAD PUSH2 0x6A0 SWAP1 PUSH2 0x1C01 JUMP JUMPDEST DUP1 ISZERO PUSH2 0x6EB JUMPI DUP1 PUSH1 0x1F LT PUSH2 0x6C2 JUMPI PUSH2 0x100 DUP1 DUP4 SLOAD DIV MUL DUP4 MSTORE SWAP2 PUSH1 0x20 ADD SWAP2 PUSH2 0x6EB JUMP JUMPDEST DUP3 ADD SWAP2 SWAP1 PUSH0 MSTORE PUSH1 0x20 PUSH0 KECCAK256 SWAP1 JUMPDEST DUP2 SLOAD DUP2 MSTORE SWAP1 PUSH1 0x1 ADD SWAP1 PUSH1 0x20 ADD DUP1 DUP4 GT PUSH2 0x6CE JUMPI DUP3 SWAP1 SUB PUSH1 0x1F AND DUP3 ADD SWAP2 JUMPDEST POP POP POP POP POP DUP2 JUMP JUMPDEST PUSH0 DUP2 PUSH1 0x1 PUSH0 CALLER PUSH20 0xFFFFFFFFFFFFFFFFFFFFFFFFFFFFFFFFFFFFFFFF AND PUSH20 0xFFFFFFFFFFFFFFFFFFFFFFFFFFFFFFFFFFFFFFFF AND DUP2 MSTORE PUSH1 0x20 ADD SWAP1 DUP2 MSTORE PUSH1 0x20 ADD PUSH0 KECCAK256 PUSH0 DUP6 PUSH20 0xFFFFFFFFFFFFFFFFFFFFFFFFFFFFFFFFFFFFFFFF AND PUSH20 0xFFFFFFFFFFFFFFFFFFFFFFFFFFFFFFFFFFFFFFFF AND DUP2 MSTORE PUSH1 0x20 ADD SWAP1 DUP2 MSTORE PUSH1 0x20 ADD PUSH0 KECCAK256 DUP2 SWAP1 SSTORE POP DUP3 PUSH20 0xFFFFFFFFFFFFFFFFFFFFFFFFFFFFFFFFFFFFFFFF AND CALLER PUSH20 0xFFFFFFFFFFFFFFFFFFFFFFFFFFFFFFFFFFFFFFFF AND PUSH32 0x8C5BE1E5EBEC7D5BD14F71427D1E84F3DD0314C0F7B2291E5B200AC8C7C3B925 DUP5 PUSH1 0x40 MLOAD PUSH2 0x7CE SWAP2 SWAP1 PUSH2 0x18A3 JUMP JUMPDEST PUSH1 0x40 MLOAD DUP1 SWAP2 SUB SWAP1 LOG3 PUSH1 0x1 SWAP1 POP SWAP3 SWAP2 POP POP JUMP JUMPDEST PUSH32 0x0 DUP2 JUMP JUMPDEST PUSH1 0xB PUSH0 SWAP1 SLOAD SWAP1 PUSH2 0x100 EXP SWAP1 DIV PUSH4 0xFFFFFFFF AND DUP2 JUMP JUMPDEST PUSH1 0x2 SLOAD DUP2 JUMP JUMPDEST PUSH1 0xA SLOAD DUP2 JUMP JUMPDEST PUSH1 0x9 SLOAD DUP2 JUMP JUMPDEST PUSH0 DUP2 PUSH0 PUSH0 DUP7 PUSH20 0xFFFFFFFFFFFFFFFFFFFFFFFFFFFFFFFFFFFFFFFF AND PUSH20 0xFFFFFFFFFFFFFFFFFFFFFFFFFFFFFFFFFFFFFFFF AND DUP2 MSTORE PUSH1 0x20 ADD SWAP1 DUP2 MSTORE PUSH1 0x20 ADD PUSH0 KECCAK256 SLOAD LT ISZERO PUSH2 0x8AB JUMPI PUSH1 0x40 MLOAD PUSH32 0x8C379A000000000000000000000000000000000000000000000000000000000 DUP2 MSTORE PUSH1 0x4 ADD PUSH2 0x8A2 SWAP1 PUSH2 0x1C7B JUMP JUMPDEST PUSH1 0x40 MLOAD DUP1 SWAP2 SUB SWAP1 REVERT JUMPDEST DUP2 PUSH1 0x1 PUSH0 DUP7 PUSH20 0xFFFFFFFFFFFFFFFFFFFFFFFFFFFFFFFFFFFFFFFF AND PUSH20 0xFFFFFFFFFFFFFFFFFFFFFFFFFFFFFFFFFFFFFFFF AND DUP2 MSTORE PUSH1 0x20 ADD SWAP1 DUP2 MSTORE PUSH1 0x20 ADD PUSH0 KECCAK256 PUSH0 CALLER PUSH20 0xFFFFFFFFFFFFFFFFFFFFFFFFFFFFFFFFFFFFFFFF AND PUSH20 0xFFFFFFFFFFFFFFFFFFFFFFFFFFFFFFFFFFFFFFFF AND DUP2 MSTORE PUSH1 0x20 ADD SWAP1 DUP2 MSTORE PUSH1 0x20 ADD PUSH0 KECCAK256 SLOAD LT ISZERO PUSH2 0x966 JUMPI PUSH1 0x40 MLOAD PUSH32 0x8C379A000000000000000000000000000000000000000000000000000000000 DUP2 MSTORE PUSH1 0x4 ADD PUSH2 0x95D SWAP1 PUSH2 0x1CE3 JUMP JUMPDEST PUSH1 0x40 MLOAD DUP1 SWAP2 SUB SWAP1 REVERT JUMPDEST DUP2 PUSH0 PUSH0 DUP6 PUSH20 0xFFFFFFFFFFFFFFFFFFFFFFFFFFFFFFFFFFFFFFFF AND PUSH20 0xFFFFFFFFFFFFFFFFFFFFFFFFFFFFFFFFFFFFFFFF AND DUP2 MSTORE PUSH1 0x20 ADD SWAP1 DUP2 MSTORE PUSH1 0x20 ADD PUSH0 KECCAK256 PUSH0 DUP3 DUP3 SLOAD PUSH2 0x9B1 SWAP2 SWAP1 PUSH2 0x1D2E JUMP JUMPDEST SWAP3 POP POP DUP2 SWAP1 SSTORE POP DUP2 PUSH0 PUSH0 DUP7 PUSH20 0xFFFFFFFFFFFFFFFFFFFFFFFFFFFFFFFFFFFFFFFF AND PUSH20 0xFFFFFFFFFFFFFFFFFFFFFFFFFFFFFFFFFFFFFFFF AND DUP2 MSTORE PUSH1 0x20 ADD SWAP1 DUP2 MSTORE PUSH1 0x20 ADD PUSH0 KECCAK256 PUSH0 DUP3 DUP3 SLOAD PUSH2 0xA03 SWAP2 SWAP1 PUSH2 0x1D61 JUMP JUMPDEST SWAP3 POP POP DUP2 SWAP1 SSTORE POP DUP2 PUSH1 0x1 PUSH0 DUP7 PUSH20 0xFFFFFFFFFFFFFFFFFFFFFFFFFFFFFFFFFFFFFFFF AND PUSH20 0xFFFFFFFFFFFFFFFFFFFFFFFFFFFFFFFFFFFFFFFF AND DUP2 MSTORE PUSH1 0x20 ADD SWAP1 DUP2 MSTORE PUSH1 0x20 ADD PUSH0 KECCAK256 PUSH0 CALLER PUSH20 0xFFFFFFFFFFFFFFFFFFFFFFFFFFFFFFFFFFFFFFFF AND PUSH20 0xFFFFFFFFFFFFFFFFFFFFFFFFFFFFFFFFFFFFFFFF AND DUP2 MSTORE PUSH1 0x20 ADD SWAP1 DUP2 MSTORE PUSH1 0x20 ADD PUSH0 KECCAK256 PUSH0 DUP3 DUP3 SLOAD PUSH2 0xA91 SWAP2 SWAP1 PUSH2 0x1D61 JUMP JUMPDEST SWAP3 POP POP DUP2 SWAP1 SSTORE POP DUP3 PUSH20 0xFFFFFFFFFFFFFFFFFFFFFFFFFFFFFFFFFFFFFFFF AND DUP5 PUSH20 0xFFFFFFFFFFFFFFFFFFFFFFFFFFFFFFFFFFFFFFFF AND PUSH32 0xDDF252AD1BE2C89B69C2B068FC378DAA952BA7F163C4A11628F55A4DF523B3EF DUP5 PUSH1 0x40 MLOAD PUSH2 0xAF5 SWAP2 SWAP1 PUSH2 0x18A3 JUMP JUMPDEST PUSH1 0x40 MLOAD DUP1 SWAP2 SUB SWAP1 LOG3 PUSH1 0x1 SWAP1 POP SWAP4 SWAP3 POP POP POP JUMP JUMPDEST PUSH32 0x0 DUP2 JUMP JUMPDEST PUSH32 0x0 DUP2 JUMP JUMPDEST PUSH0 PUSH0 PUSH32 0x0 PUSH0 SHR SWAP1 POP PUSH0 PUSH1 0xA SLOAD PUSH2 0x3E8 DUP4 PUSH2 0xB89 SWAP2 SWAP1 PUSH2 0x1D94 JUMP JUMPDEST PUSH2 0xB93 SWAP2 SWAP1 PUSH2 0x1E02 JUMP JUMPDEST SWAP1 POP PUSH0 DUP2 SUB PUSH2 0xBA1 JUMPI PUSH1 0x1 SWAP1 POP JUMPDEST DUP1 PUSH0 SHL SWAP3 POP POP POP SWAP1 JUMP JUMPDEST PUSH32 0x0 DUP2 JUMP JUMPDEST PUSH0 PUSH1 0x7 SLOAD CALLER DUP4 PUSH1 0x40 MLOAD PUSH1 0x20 ADD PUSH2 0xBE7 SWAP4 SWAP3 SWAP2 SWAP1 PUSH2 0x1EB7 JUMP JUMPDEST PUSH1 0x40 MLOAD PUSH1 0x20 DUP2 DUP4 SUB SUB DUP2 MSTORE SWAP1 PUSH1 0x40 MSTORE DUP1 MLOAD SWAP1 PUSH1 0x20 ADD KECCAK256 SWAP1 POP PUSH0 PUSH4 0x3B9ACA00 PUSH1 0xA SLOAD PUSH2 0xC12 SWAP2 SWAP1 PUSH2 0x1D94 JUMP JUMPDEST SWAP1 POP DUP4 DUP3 EQ DUP1 ISZERO PUSH2 0xC28 JUMPI POP PUSH2 0xC27 DUP5 PUSH2 0x122C JUMP JUMPDEST JUMPDEST DUP1 ISZERO PUSH2 0xC34 JUMPI POP DUP1 CALLVALUE LT ISZERO JUMPDEST PUSH2 0xC73 JUMPI PUSH1 0x40 MLOAD PUSH32 0x8C379A000000000000000000000000000000000000000000000000000000000 DUP2 MSTORE PUSH1 0x4 ADD PUSH2 0xC6A SWAP1 PUSH2 0x1F3D JUMP JUMPDEST PUSH1 0x40 MLOAD DUP1 SWAP2 SUB SWAP1 REVERT JUMPDEST PUSH2 0xC7B PUSH2 0x1247 JUMP JUMPDEST PUSH1 0x8 TIMESTAMP SWAP1 DUP1 PUSH1 0x1 DUP2 SLOAD ADD DUP1 DUP3 SSTORE DUP1 SWAP2 POP POP PUSH1 0x1 SWAP1 SUB SWAP1 PUSH0 MSTORE PUSH1 0x20 PUSH0 KECCAK256 ADD PUSH0 SWAP1 SWAP2 SWAP1 SWAP2 SWAP1 SWAP2 POP SSTORE DUP4 PUSH1 0x7 DUP2 SWAP1 SSTORE POP PUSH2 0xCB4 CALLER PUSH1 0x9 SLOAD PUSH2 0x134E JUMP JUMPDEST PUSH0 DUP2 CALLVALUE PUSH2 0xCC1 SWAP2 SWAP1 PUSH2 0x1D61 JUMP JUMPDEST SWAP1 POP PUSH0 DUP2 GT ISZERO PUSH2 0xD10 JUMPI CALLER PUSH20 0xFFFFFFFFFFFFFFFFFFFFFFFFFFFFFFFFFFFFFFFF AND PUSH2 0x8FC DUP3 SWAP1 DUP2 ISZERO MUL SWAP1 PUSH1 0x40 MLOAD PUSH0 PUSH1 0x40 MLOAD DUP1 DUP4 SUB DUP2 DUP6 DUP9 DUP9 CALL SWAP4 POP POP POP POP ISZERO DUP1 ISZERO PUSH2 0xD0E JUMPI RETURNDATASIZE PUSH0 PUSH0 RETURNDATACOPY RETURNDATASIZE PUSH0 REVERT JUMPDEST POP JUMPDEST POP POP POP POP POP JUMP JUMPDEST PUSH1 0x7 SLOAD DUP2 JUMP JUMPDEST PUSH32 0x0 DUP2 JUMP JUMPDEST PUSH0 PUSH1 0x20 MSTORE DUP1 PUSH0 MSTORE PUSH1 0x40 PUSH0 KECCAK256 PUSH0 SWAP2 POP SWAP1 POP SLOAD DUP2 JUMP JUMPDEST PUSH1 0x6 DUP1 SLOAD PUSH2 0xD62 SWAP1 PUSH2 0x1C01 JUMP JUMPDEST DUP1 PUSH1 0x1F ADD PUSH1 0x20 DUP1 SWAP2 DIV MUL PUSH1 0x20 ADD PUSH1 0x40 MLOAD SWAP1 DUP2 ADD PUSH1 0x40 MSTORE DUP1 SWAP3 SWAP2 SWAP1 DUP2 DUP2 MSTORE PUSH1 0x20 ADD DUP3 DUP1 SLOAD PUSH2 0xD8E SWAP1 PUSH2 0x1C01 JUMP JUMPDEST DUP1 ISZERO PUSH2 0xDD9 JUMPI DUP1 PUSH1 0x1F LT PUSH2 0xDB0 JUMPI PUSH2 0x100 DUP1 DUP4 SLOAD DIV MUL DUP4 MSTORE SWAP2 PUSH1 0x20 ADD SWAP2 PUSH2 0xDD9 JUMP JUMPDEST DUP3 ADD SWAP2 SWAP1 PUSH0 MSTORE PUSH1 0x20 PUSH0 KECCAK256 SWAP1 JUMPDEST DUP2 SLOAD DUP2 MSTORE SWAP1 PUSH1 0x1 ADD SWAP1 PUSH1 0x20 ADD DUP1 DUP4 GT PUSH2 0xDBC JUMPI DUP3 SWAP1 SUB PUSH1 0x1F AND DUP3 ADD SWAP2 JUMPDEST POP POP POP POP POP DUP2 JUMP JUMPDEST PUSH1 0x4 DUP1 SLOAD PUSH2 0xDEE SWAP1 PUSH2 0x1C01 JUMP JUMPDEST DUP1 PUSH1 0x1F ADD PUSH1 0x20 DUP1 SWAP2 DIV MUL PUSH1 0x20 ADD PUSH1 0x40 MLOAD SWAP1 DUP2 ADD PUSH1 0x40 MSTORE DUP1 SWAP3 SWAP2 SWAP1 DUP2 DUP2 MSTORE PUSH1 0x20 ADD DUP3 DUP1 SLOAD PUSH2 0xE1A SWAP1 PUSH2 0x1C01 JUMP JUMPDEST DUP1 ISZERO PUSH2 0xE65 JUMPI DUP1 PUSH1 0x1F LT PUSH2 0xE3C JUMPI PUSH2 0x100 DUP1 DUP4 SLOAD DIV MUL DUP4 MSTORE SWAP2 PUSH1 0x20 ADD SWAP2 PUSH2 0xE65 JUMP JUMPDEST DUP3 ADD SWAP2 SWAP1 PUSH0 MSTORE PUSH1 0x20 PUSH0 KECCAK256 SWAP1 JUMPDEST DUP2 SLOAD DUP2 MSTORE SWAP1 PUSH1 0x1 ADD SWAP1 PUSH1 0x20 ADD DUP1 DUP4 GT PUSH2 0xE48 JUMPI DUP3 SWAP1 SUB PUSH1 0x1F AND DUP3 ADD SWAP2 JUMPDEST POP POP POP POP POP DUP2 JUMP JUMPDEST PUSH32 0x0 DUP2 JUMP JUMPDEST PUSH32 0x0 DUP2 JUMP JUMPDEST DUP1 PUSH0 PUSH0 CALLER PUSH20 0xFFFFFFFFFFFFFFFFFFFFFFFFFFFFFFFFFFFFFFFF AND PUSH20 0xFFFFFFFFFFFFFFFFFFFFFFFFFFFFFFFFFFFFFFFF AND DUP2 MSTORE PUSH1 0x20 ADD SWAP1 DUP2 MSTORE PUSH1 0x20 ADD PUSH0 KECCAK256 SLOAD LT ISZERO PUSH2 0xF34 JUMPI PUSH1 0x40 MLOAD PUSH32 0x8C379A000000000000000000000000000000000000000000000000000000000 DUP2 MSTORE PUSH1 0x4 ADD PUSH2 0xF2B SWAP1 PUSH2 0x1C7B JUMP JUMPDEST PUSH1 0x40 MLOAD DUP1 SWAP2 SUB SWAP1 REVERT JUMPDEST PUSH0 PUSH1 0x2 SLOAD DUP3 SELFBALANCE PUSH2 0xF44 SWAP2 SWAP1 PUSH2 0x1D94 JUMP JUMPDEST PUSH2 0xF4E SWAP2 SWAP1 PUSH2 0x1E02 JUMP JUMPDEST SWAP1 POP PUSH0 PUSH1 0x64 PUSH32 0x0 PUSH1 0x64 PUSH2 0xF80 SWAP2 SWAP1 PUSH2 0x1F5B JUMP JUMPDEST PUSH1 0xFF AND DUP4 PUSH2 0xF8E SWAP2 SWAP1 PUSH2 0x1D94 JUMP JUMPDEST PUSH2 0xF98 SWAP2 SWAP1 PUSH2 0x1E02 JUMP JUMPDEST SWAP1 POP PUSH2 0xFA4 CALLER DUP5 PUSH2 0x140A JUMP JUMPDEST CALLER PUSH20 0xFFFFFFFFFFFFFFFFFFFFFFFFFFFFFFFFFFFFFFFF AND PUSH2 0x8FC DUP3 SWAP1 DUP2 ISZERO MUL SWAP1 PUSH1 0x40 MLOAD PUSH0 PUSH1 0x40 MLOAD DUP1 DUP4 SUB DUP2 DUP6 DUP9 DUP9 CALL SWAP4 POP POP POP POP ISZERO DUP1 ISZERO PUSH2 0xFE7 JUMPI RETURNDATASIZE PUSH0 PUSH0 RETURNDATACOPY RETURNDATASIZE PUSH0 REVERT JUMPDEST POP POP POP POP JUMP JUMPDEST PUSH0 DUP2 PUSH0 PUSH0 CALLER PUSH20 0xFFFFFFFFFFFFFFFFFFFFFFFFFFFFFFFFFFFFFFFF AND PUSH20 0xFFFFFFFFFFFFFFFFFFFFFFFFFFFFFFFFFFFFFFFF AND DUP2 MSTORE PUSH1 0x20 ADD SWAP1 DUP2 MSTORE PUSH1 0x20 ADD PUSH0 KECCAK256 SLOAD LT ISZERO PUSH2 0x106D JUMPI PUSH1 0x40 MLOAD PUSH32 0x8C379A000000000000000000000000000000000000000000000000000000000 DUP2 MSTORE PUSH1 0x4 ADD PUSH2 0x1064 SWAP1 PUSH2 0x1C7B JUMP JUMPDEST PUSH1 0x40 MLOAD DUP1 SWAP2 SUB SWAP1 REVERT JUMPDEST DUP2 PUSH0 PUSH0 CALLER PUSH20 0xFFFFFFFFFFFFFFFFFFFFFFFFFFFFFFFFFFFFFFFF AND PUSH20 0xFFFFFFFFFFFFFFFFFFFFFFFFFFFFFFFFFFFFFFFF AND DUP2 MSTORE PUSH1 0x20 ADD SWAP1 DUP2 MSTORE PUSH1 0x20 ADD PUSH0 KECCAK256 PUSH0 DUP3 DUP3 SLOAD PUSH2 0x10B8 SWAP2 SWAP1 PUSH2 0x1D61 JUMP JUMPDEST SWAP3 POP POP DUP2 SWAP1 SSTORE POP DUP2 PUSH0 PUSH0 DUP6 PUSH20 0xFFFFFFFFFFFFFFFFFFFFFFFFFFFFFFFFFFFFFFFF AND PUSH20 0xFFFFFFFFFFFFFFFFFFFFFFFFFFFFFFFFFFFFFFFF AND DUP2 MSTORE PUSH1 0x20 ADD SWAP1 DUP2 MSTORE PUSH1 0x20 ADD PUSH0 KECCAK256 PUSH0 DUP3 DUP3 SLOAD PUSH2 0x110A SWAP2 SWAP1 PUSH2 0x1D2E JUMP JUMPDEST SWAP3 POP POP DUP2 SWAP1 SSTORE POP DUP3 PUSH20 0xFFFFFFFFFFFFFFFFFFFFFFFFFFFFFFFFFFFFFFFF AND CALLER PUSH20 0xFFFFFFFFFFFFFFFFFFFFFFFFFFFFFFFFFFFFFFFF AND PUSH32 0xDDF252AD1BE2C89B69C2B068FC378DAA952BA7F163C4A11628F55A4DF523B3EF DUP5 PUSH1 0x40 MLOAD PUSH2 0x116E SWAP2 SWAP1 PUSH2 0x18A3 JUMP JUMPDEST PUSH1 0x40 MLOAD DUP1 SWAP2 SUB SWAP1 LOG3 PUSH1 0x1 SWAP1 POP SWAP3 SWAP2 POP POP JUMP JUMPDEST PUSH1 0x1 PUSH1 0x20 MSTORE DUP2 PUSH0 MSTORE PUSH1 0x40 PUSH0 KECCAK256 PUSH1 0x20 MSTORE DUP1 PUSH0 MSTORE PUSH1 0x40 PUSH0 KECCAK256 PUSH0 SWAP2 POP SWAP2 POP POP SLOAD DUP2 JUMP JUMPDEST PUSH1 0x5 DUP1 SLOAD PUSH2 0x11AD SWAP1 PUSH2 0x1C01 JUMP JUMPDEST DUP1 PUSH1 0x1F ADD PUSH1 0x20 DUP1 SWAP2 DIV MUL PUSH1 0x20 ADD PUSH1 0x40 MLOAD SWAP1 DUP2 ADD PUSH1 0x40 MSTORE DUP1 SWAP3 SWAP2 SWAP1 DUP2 DUP2 MSTORE PUSH1 0x20 ADD DUP3 DUP1 SLOAD PUSH2 0x11D9 SWAP1 PUSH2 0x1C01 JUMP JUMPDEST DUP1 ISZERO PUSH2 0x1224 JUMPI DUP1 PUSH1 0x1F LT PUSH2 0x11FB JUMPI PUSH2 0x100 DUP1 DUP4 SLOAD DIV MUL DUP4 MSTORE SWAP2 PUSH1 0x20 ADD SWAP2 PUSH2 0x1224 JUMP JUMPDEST DUP3 ADD SWAP2 SWAP1 PUSH0 MSTORE PUSH1 0x20 PUSH0 KECCAK256 SWAP1 JUMPDEST DUP2 SLOAD DUP2 MSTORE SWAP1 PUSH1 0x1 ADD SWAP1 PUSH1 0x20 ADD DUP1 DUP4 GT PUSH2 0x1207 JUMPI DUP3 SWAP1 SUB PUSH1 0x1F AND DUP3 ADD SWAP2 JUMPDEST POP POP POP POP POP DUP2 JUMP JUMPDEST PUSH0 PUSH0 PUSH2 0x1236 PUSH2 0xB50 JUMP JUMPDEST PUSH0 SHR SWAP1 POP DUP1 DUP4 PUSH0 SHR LT SWAP2 POP POP SWAP2 SWAP1 POP JUMP JUMPDEST PUSH32 0x0 PUSH4 0xFFFFFFFF AND PUSH1 0x8 DUP1 SLOAD SWAP1 POP SUB PUSH2 0x128F JUMPI PUSH2 0x1281 PUSH2 0x1545 JUMP JUMPDEST PUSH1 0x8 PUSH0 PUSH2 0x128E SWAP2 SWAP1 PUSH2 0x17C4 JUMP JUMPDEST JUMPDEST PUSH0 PUSH1 0xB PUSH0 SWAP1 SLOAD SWAP1 PUSH2 0x100 EXP SWAP1 DIV PUSH4 0xFFFFFFFF AND PUSH4 0xFFFFFFFF AND SUB PUSH2 0x130B JUMPI PUSH1 0x2 PUSH1 0x9 PUSH0 DUP3 DUP3 SLOAD PUSH2 0x12BF SWAP2 SWAP1 PUSH2 0x1E02 JUMP JUMPDEST SWAP3 POP POP DUP2 SWAP1 SSTORE POP PUSH32 0x0 PUSH1 0xB PUSH0 PUSH2 0x100 EXP DUP2 SLOAD DUP2 PUSH4 0xFFFFFFFF MUL NOT AND SWAP1 DUP4 PUSH4 0xFFFFFFFF AND MUL OR SWAP1 SSTORE POP PUSH2 0x134C JUMP JUMPDEST PUSH1 0xB PUSH0 DUP2 DUP2 SWAP1 SLOAD SWAP1 PUSH2 0x100 EXP SWAP1 DIV PUSH4 0xFFFFFFFF AND DUP1 SWAP3 SWAP2 SWAP1 PUSH2 0x132C SWAP1 PUSH2 0x1F8F JUMP JUMPDEST SWAP2 SWAP1 PUSH2 0x100 EXP DUP2 SLOAD DUP2 PUSH4 0xFFFFFFFF MUL NOT AND SWAP1 DUP4 PUSH4 0xFFFFFFFF AND MUL OR SWAP1 SSTORE POP POP JUMPDEST JUMP JUMPDEST DUP1 PUSH0 PUSH0 DUP5 PUSH20 0xFFFFFFFFFFFFFFFFFFFFFFFFFFFFFFFFFFFFFFFF AND PUSH20 0xFFFFFFFFFFFFFFFFFFFFFFFFFFFFFFFFFFFFFFFF AND DUP2 MSTORE PUSH1 0x20 ADD SWAP1 DUP2 MSTORE PUSH1 0x20 ADD PUSH0 KECCAK256 PUSH0 DUP3 DUP3 SLOAD PUSH2 0x1399 SWAP2 SWAP1 PUSH2 0x1D2E JUMP JUMPDEST SWAP3 POP POP DUP2 SWAP1 SSTORE POP DUP1 PUSH1 0x2 PUSH0 DUP3 DUP3 SLOAD PUSH2 0x13B1 SWAP2 SWAP1 PUSH2 0x1D2E JUMP JUMPDEST SWAP3 POP POP DUP2 SWAP1 SSTORE POP DUP2 PUSH20 0xFFFFFFFFFFFFFFFFFFFFFFFFFFFFFFFFFFFFFFFF AND PUSH32 0xF6798A560793A54C3BCFE86A93CDE1E73087D944C0EA20544137D4121396885 DUP3 PUSH1 0x40 MLOAD PUSH2 0x13FE SWAP2 SWAP1 PUSH2 0x18A3 JUMP JUMPDEST PUSH1 0x40 MLOAD DUP1 SWAP2 SUB SWAP1 LOG2 POP POP JUMP JUMPDEST DUP1 PUSH0 PUSH0 DUP5 PUSH20 0xFFFFFFFFFFFFFFFFFFFFFFFFFFFFFFFFFFFFFFFF AND PUSH20 0xFFFFFFFFFFFFFFFFFFFFFFFFFFFFFFFFFFFFFFFF AND DUP2 MSTORE PUSH1 0x20 ADD SWAP1 DUP2 MSTORE PUSH1 0x20 ADD PUSH0 KECCAK256 SLOAD LT ISZERO PUSH2 0x1489 JUMPI PUSH1 0x40 MLOAD PUSH32 0x8C379A000000000000000000000000000000000000000000000000000000000 DUP2 MSTORE PUSH1 0x4 ADD PUSH2 0x1480 SWAP1 PUSH2 0x1C7B JUMP JUMPDEST PUSH1 0x40 MLOAD DUP1 SWAP2 SUB SWAP1 REVERT JUMPDEST DUP1 PUSH0 PUSH0 DUP5 PUSH20 0xFFFFFFFFFFFFFFFFFFFFFFFFFFFFFFFFFFFFFFFF AND PUSH20 0xFFFFFFFFFFFFFFFFFFFFFFFFFFFFFFFFFFFFFFFF AND DUP2 MSTORE PUSH1 0x20 ADD SWAP1 DUP2 MSTORE PUSH1 0x20 ADD PUSH0 KECCAK256 PUSH0 DUP3 DUP3 SLOAD PUSH2 0x14D4 SWAP2 SWAP1 PUSH2 0x1D61 JUMP JUMPDEST SWAP3 POP POP DUP2 SWAP1 SSTORE POP DUP1 PUSH1 0x2 PUSH0 DUP3 DUP3 SLOAD PUSH2 0x14EC SWAP2 SWAP1 PUSH2 0x1D61 JUMP JUMPDEST SWAP3 POP POP DUP2 SWAP1 SSTORE POP DUP2 PUSH20 0xFFFFFFFFFFFFFFFFFFFFFFFFFFFFFFFFFFFFFFFF AND PUSH32 0xCC16F5DBB4873280815C1EE09DBD06736CFFCC184412CF7A71A0FDB75D397CA5 DUP3 PUSH1 0x40 MLOAD PUSH2 0x1539 SWAP2 SWAP1 PUSH2 0x18A3 JUMP JUMPDEST PUSH1 0x40 MLOAD DUP1 SWAP2 SUB SWAP1 LOG2 POP POP JUMP JUMPDEST PUSH0 PUSH1 0x8 DUP1 SLOAD SWAP1 POP SWAP1 POP PUSH32 0x0 PUSH4 0xFFFFFFFF AND DUP2 LT ISZERO PUSH2 0x1582 JUMPI POP PUSH2 0x17C2 JUMP JUMPDEST PUSH0 PUSH0 PUSH1 0x1 SWAP1 POP JUMPDEST DUP3 DUP2 LT ISZERO PUSH2 0x15F9 JUMPI PUSH1 0x8 PUSH1 0x1 DUP3 PUSH2 0x15A0 SWAP2 SWAP1 PUSH2 0x1D61 JUMP JUMPDEST DUP2 SLOAD DUP2 LT PUSH2 0x15B1 JUMPI PUSH2 0x15B0 PUSH2 0x1FB6 JUMP JUMPDEST JUMPDEST SWAP1 PUSH0 MSTORE PUSH1 0x20 PUSH0 KECCAK256 ADD SLOAD PUSH1 0x8 DUP3 DUP2 SLOAD DUP2 LT PUSH2 0x15CE JUMPI PUSH2 0x15CD PUSH2 0x1FB6 JUMP JUMPDEST JUMPDEST SWAP1 PUSH0 MSTORE PUSH1 0x20 PUSH0 KECCAK256 ADD SLOAD PUSH2 0x15E1 SWAP2 SWAP1 PUSH2 0x1D61 JUMP JUMPDEST DUP3 PUSH2 0x15EC SWAP2 SWAP1 PUSH2 0x1D2E JUMP JUMPDEST SWAP2 POP DUP1 PUSH1 0x1 ADD SWAP1 POP PUSH2 0x1589 JUMP JUMPDEST POP PUSH0 PUSH1 0x1 DUP4 PUSH2 0x1608 SWAP2 SWAP1 PUSH2 0x1D61 JUMP JUMPDEST DUP3 PUSH2 0x1613 SWAP2 SWAP1 PUSH2 0x1E02 JUMP JUMPDEST SWAP1 POP PUSH0 PUSH0 DUP3 SUB PUSH2 0x1649 JUMPI PUSH32 0x0 PUSH2 0xFFFF AND SWAP1 POP PUSH2 0x1688 JUMP JUMPDEST DUP2 PUSH1 0x64 PUSH32 0x0 PUSH2 0xFFFF AND PUSH2 0x167B SWAP2 SWAP1 PUSH2 0x1D94 JUMP JUMPDEST PUSH2 0x1685 SWAP2 SWAP1 PUSH2 0x1E02 JUMP JUMPDEST SWAP1 POP JUMPDEST DUP1 PUSH32 0x0 PUSH2 0xFFFF AND GT ISZERO PUSH2 0x16E0 JUMPI PUSH32 0x0 PUSH2 0xFFFF AND SWAP1 POP PUSH2 0x1735 JUMP JUMPDEST DUP1 PUSH32 0x0 PUSH2 0xFFFF AND LT ISZERO PUSH2 0x1734 JUMPI PUSH32 0x0 PUSH2 0xFFFF AND SWAP1 POP JUMPDEST JUMPDEST PUSH1 0x64 DUP2 PUSH1 0xA SLOAD PUSH2 0x1745 SWAP2 SWAP1 PUSH2 0x1D94 JUMP JUMPDEST PUSH2 0x174F SWAP2 SWAP1 PUSH2 0x1E02 JUMP JUMPDEST PUSH1 0xA DUP2 SWAP1 SSTORE POP PUSH32 0x0 PUSH1 0xA SLOAD GT ISZERO PUSH2 0x17A7 JUMPI PUSH32 0x0 PUSH1 0xA DUP2 SWAP1 SSTORE POP JUMPDEST PUSH2 0x3E8 PUSH1 0xA SLOAD LT ISZERO PUSH2 0x17BD JUMPI PUSH2 0x3E8 PUSH1 0xA DUP2 SWAP1 SSTORE POP JUMPDEST POP POP POP POP JUMPDEST JUMP JUMPDEST POP DUP1 SLOAD PUSH0 DUP3 SSTORE SWAP1 PUSH0 MSTORE PUSH1 0x20 PUSH0 KECCAK256 SWAP1 DUP2 ADD SWAP1 PUSH2 0x17DF SWAP2 SWAP1 PUSH2 0x17E2 JUMP JUMPDEST POP JUMP JUMPDEST JUMPDEST DUP1 DUP3 GT ISZERO PUSH2 0x17F9 JUMPI PUSH0 DUP2 PUSH0 SWAP1 SSTORE POP PUSH1 0x1 ADD PUSH2 0x17E3 JUMP JUMPDEST POP SWAP1 JUMP JUMPDEST PUSH0 PUSH2 0xFFFF DUP3 AND SWAP1 POP SWAP2 SWAP1 POP JUMP JUMPDEST PUSH2 0x1813 DUP2 PUSH2 0x17FD JUMP JUMPDEST DUP3 MSTORE POP POP JUMP JUMPDEST PUSH0 PUSH1 0x20 DUP3 ADD SWAP1 POP PUSH2 0x182C PUSH0 DUP4 ADD DUP5 PUSH2 0x180A JUMP JUMPDEST SWAP3 SWAP2 POP POP JUMP JUMPDEST PUSH0 PUSH0 REVERT JUMPDEST PUSH0 DUP2 SWAP1 POP SWAP2 SWAP1 POP JUMP JUMPDEST PUSH2 0x1848 DUP2 PUSH2 0x1836 JUMP JUMPDEST DUP2 EQ PUSH2 0x1852 JUMPI PUSH0 PUSH0 REVERT JUMPDEST POP JUMP JUMPDEST PUSH0 DUP2 CALLDATALOAD SWAP1 POP PUSH2 0x1863 DUP2 PUSH2 0x183F JUMP JUMPDEST SWAP3 SWAP2 POP POP JUMP JUMPDEST PUSH0 PUSH1 0x20 DUP3 DUP5 SUB SLT ISZERO PUSH2 0x187E JUMPI PUSH2 0x187D PUSH2 0x1832 JUMP JUMPDEST JUMPDEST PUSH0 PUSH2 0x188B DUP5 DUP3 DUP6 ADD PUSH2 0x1855 JUMP JUMPDEST SWAP2 POP POP SWAP3 SWAP2 POP POP JUMP JUMPDEST PUSH2 0x189D DUP2 PUSH2 0x1836 JUMP JUMPDEST DUP3 MSTORE POP POP JUMP JUMPDEST PUSH0 PUSH1 0x20 DUP3 ADD SWAP1 POP PUSH2 0x18B6 PUSH0 DUP4 ADD DUP5 PUSH2 0x1894 JUMP JUMPDEST SWAP3 SWAP2 POP POP JUMP JUMPDEST PUSH0 DUP2 MLOAD SWAP1 POP SWAP2 SWAP1 POP JUMP JUMPDEST PUSH0 DUP3 DUP3 MSTORE PUSH1 0x20 DUP3 ADD SWAP1 POP SWAP3 SWAP2 POP POP JUMP JUMPDEST DUP3 DUP2 DUP4 MCOPY PUSH0 DUP4 DUP4 ADD MSTORE POP POP POP JUMP JUMPDEST PUSH0 PUSH1 0x1F NOT PUSH1 0x1F DUP4 ADD AND SWAP1 POP SWAP2 SWAP1 POP JUMP JUMPDEST PUSH0 PUSH2 0x18FE DUP3 PUSH2 0x18BC JUMP JUMPDEST PUSH2 0x1908 DUP2 DUP6 PUSH2 0x18C6 JUMP JUMPDEST SWAP4 POP PUSH2 0x1918 DUP2 DUP6 PUSH1 0x20 DUP7 ADD PUSH2 0x18D6 JUMP JUMPDEST PUSH2 0x1921 DUP2 PUSH2 0x18E4 JUMP JUMPDEST DUP5 ADD SWAP2 POP POP SWAP3 SWAP2 POP POP JUMP JUMPDEST PUSH0 PUSH1 0x20 DUP3 ADD SWAP1 POP DUP2 DUP2 SUB PUSH0 DUP4 ADD MSTORE PUSH2 0x1944 DUP2 DUP5 PUSH2 0x18F4 JUMP JUMPDEST SWAP1 POP SWAP3 SWAP2 POP POP JUMP JUMPDEST PUSH0 PUSH20 0xFFFFFFFFFFFFFFFFFFFFFFFFFFFFFFFFFFFFFFFF DUP3 AND SWAP1 POP SWAP2 SWAP1 POP JUMP JUMPDEST PUSH0 PUSH2 0x1975 DUP3 PUSH2 0x194C JUMP JUMPDEST SWAP1 POP SWAP2 SWAP1 POP JUMP JUMPDEST PUSH2 0x1985 DUP2 PUSH2 0x196B JUMP JUMPDEST DUP2 EQ PUSH2 0x198F JUMPI PUSH0 PUSH0 REVERT JUMPDEST POP JUMP JUMPDEST PUSH0 DUP2 CALLDATALOAD SWAP1 POP PUSH2 0x19A0 DUP2 PUSH2 0x197C JUMP JUMPDEST SWAP3 SWAP2 POP POP JUMP JUMPDEST PUSH0 PUSH0 PUSH1 0x40 DUP4 DUP6 SUB SLT ISZERO PUSH2 0x19BC JUMPI PUSH2 0x19BB PUSH2 0x1832 JUMP JUMPDEST JUMPDEST PUSH0 PUSH2 0x19C9 DUP6 DUP3 DUP7 ADD PUSH2 0x1992 JUMP JUMPDEST SWAP3 POP POP PUSH1 0x20 PUSH2 0x19DA DUP6 DUP3 DUP7 ADD PUSH2 0x1855 JUMP JUMPDEST SWAP2 POP POP SWAP3 POP SWAP3 SWAP1 POP JUMP JUMPDEST PUSH0 DUP2 ISZERO ISZERO SWAP1 POP SWAP2 SWAP1 POP JUMP JUMPDEST PUSH2 0x19F8 DUP2 PUSH2 0x19E4 JUMP JUMPDEST DUP3 MSTORE POP POP JUMP JUMPDEST PUSH0 PUSH1 0x20 DUP3 ADD SWAP1 POP PUSH2 0x1A11 PUSH0 DUP4 ADD DUP5 PUSH2 0x19EF JUMP JUMPDEST SWAP3 SWAP2 POP POP JUMP JUMPDEST PUSH0 PUSH4 0xFFFFFFFF DUP3 AND SWAP1 POP SWAP2 SWAP1 POP JUMP JUMPDEST PUSH2 0x1A2F DUP2 PUSH2 0x1A17 JUMP JUMPDEST DUP3 MSTORE POP POP JUMP JUMPDEST PUSH0 PUSH1 0x20 DUP3 ADD SWAP1 POP PUSH2 0x1A48 PUSH0 DUP4 ADD DUP5 PUSH2 0x1A26 JUMP JUMPDEST SWAP3 SWAP2 POP POP JUMP JUMPDEST PUSH0 PUSH0 PUSH0 PUSH1 0x60 DUP5 DUP7 SUB SLT ISZERO PUSH2 0x1A65 JUMPI PUSH2 0x1A64 PUSH2 0x1832 JUMP JUMPDEST JUMPDEST PUSH0 PUSH2 0x1A72 DUP7 DUP3 DUP8 ADD PUSH2 0x1992 JUMP JUMPDEST SWAP4 POP POP PUSH1 0x20 PUSH2 0x1A83 DUP7 DUP3 DUP8 ADD PUSH2 0x1992 JUMP JUMPDEST SWAP3 POP POP PUSH1 0x40 PUSH2 0x1A94 DUP7 DUP3 DUP8 ADD PUSH2 0x1855 JUMP JUMPDEST SWAP2 POP POP SWAP3 POP SWAP3 POP SWAP3 JUMP JUMPDEST PUSH0 PUSH1 0xFF DUP3 AND SWAP1 POP SWAP2 SWAP1 POP JUMP JUMPDEST PUSH2 0x1AB3 DUP2 PUSH2 0x1A9E JUMP JUMPDEST DUP3 MSTORE POP POP JUMP JUMPDEST PUSH0 PUSH1 0x20 DUP3 ADD SWAP1 POP PUSH2 0x1ACC PUSH0 DUP4 ADD DUP5 PUSH2 0x1AAA JUMP JUMPDEST SWAP3 SWAP2 POP POP JUMP JUMPDEST PUSH0 DUP2 SWAP1 POP SWAP2 SWAP1 POP JUMP JUMPDEST PUSH2 0x1AE4 DUP2 PUSH2 0x1AD2 JUMP JUMPDEST DUP3 MSTORE POP POP JUMP JUMPDEST PUSH0 PUSH1 0x20 DUP3 ADD SWAP1 POP PUSH2 0x1AFD PUSH0 DUP4 ADD DUP5 PUSH2 0x1ADB JUMP JUMPDEST SWAP3 SWAP2 POP POP JUMP JUMPDEST PUSH2 0x1B0C DUP2 PUSH2 0x1AD2 JUMP JUMPDEST DUP2 EQ PUSH2 0x1B16 JUMPI PUSH0 PUSH0 REVERT JUMPDEST POP JUMP JUMPDEST PUSH0 DUP2 CALLDATALOAD SWAP1 POP PUSH2 0x1B27 DUP2 PUSH2 0x1B03 JUMP JUMPDEST SWAP3 SWAP2 POP POP JUMP JUMPDEST PUSH0 PUSH0 PUSH1 0x40 DUP4 DUP6 SUB SLT ISZERO PUSH2 0x1B43 JUMPI PUSH2 0x1B42 PUSH2 0x1832 JUMP JUMPDEST JUMPDEST PUSH0 PUSH2 0x1B50 DUP6 DUP3 DUP7 ADD PUSH2 0x1B19 JUMP JUMPDEST SWAP3 POP POP PUSH1 0x20 PUSH2 0x1B61 DUP6 DUP3 DUP7 ADD PUSH2 0x1855 JUMP JUMPDEST SWAP2 POP POP SWAP3 POP SWAP3 SWAP1 POP JUMP JUMPDEST PUSH0 PUSH1 0x20 DUP3 DUP5 SUB SLT ISZERO PUSH2 0x1B80 JUMPI PUSH2 0x1B7F PUSH2 0x1832 JUMP JUMPDEST JUMPDEST PUSH0 PUSH2 0x1B8D DUP5 DUP3 DUP6 ADD PUSH2 0x1992 JUMP JUMPDEST SWAP2 POP POP SWAP3 SWAP2 POP POP JUMP JUMPDEST PUSH0 PUSH0 PUSH1 0x40 DUP4 DUP6 SUB SLT ISZERO PUSH2 0x1BAC JUMPI PUSH2 0x1BAB PUSH2 0x1832 JUMP JUMPDEST JUMPDEST PUSH0 PUSH2 0x1BB9 DUP6 DUP3 DUP7 ADD PUSH2 0x1992 JUMP JUMPDEST SWAP3 POP POP PUSH1 0x20 PUSH2 0x1BCA DUP6 DUP3 DUP7 ADD PUSH2 0x1992 JUMP JUMPDEST SWAP2 POP POP SWAP3 POP SWAP3 SWAP1 POP JUMP JUMPDEST PUSH32 0x4E487B7100000000000000000000000000000000000000000000000000000000 PUSH0 MSTORE PUSH1 0x22 PUSH1 0x4 MSTORE PUSH1 0x24 PUSH0 REVERT JUMPDEST PUSH0 PUSH1 0x2 DUP3 DIV SWAP1 POP PUSH1 0x1 DUP3 AND DUP1 PUSH2 0x1C18 JUMPI PUSH1 0x7F DUP3 AND SWAP2 POP JUMPDEST PUSH1 0x20 DUP3 LT DUP2 SUB PUSH2 0x1C2B JUMPI PUSH2 0x1C2A PUSH2 0x1BD4 JUMP JUMPDEST JUMPDEST POP SWAP2 SWAP1 POP JUMP JUMPDEST PUSH32 0x42616C616E636520746F6F206C6F772E00000000000000000000000000000000 PUSH0 DUP3 ADD MSTORE POP JUMP JUMPDEST PUSH0 PUSH2 0x1C65 PUSH1 0x10 DUP4 PUSH2 0x18C6 JUMP JUMPDEST SWAP2 POP PUSH2 0x1C70 DUP3 PUSH2 0x1C31 JUMP JUMPDEST PUSH1 0x20 DUP3 ADD SWAP1 POP SWAP2 SWAP1 POP JUMP JUMPDEST PUSH0 PUSH1 0x20 DUP3 ADD SWAP1 POP DUP2 DUP2 SUB PUSH0 DUP4 ADD MSTORE PUSH2 0x1C92 DUP2 PUSH2 0x1C59 JUMP JUMPDEST SWAP1 POP SWAP2 SWAP1 POP JUMP JUMPDEST PUSH32 0x416C6C6F77616E636520746F6F206C6F772E0000000000000000000000000000 PUSH0 DUP3 ADD MSTORE POP JUMP JUMPDEST PUSH0 PUSH2 0x1CCD PUSH1 0x12 DUP4 PUSH2 0x18C6 JUMP JUMPDEST SWAP2 POP PUSH2 0x1CD8 DUP3 PUSH2 0x1C99 JUMP JUMPDEST PUSH1 0x20 DUP3 ADD SWAP1 POP SWAP2 SWAP1 POP JUMP JUMPDEST PUSH0 PUSH1 0x20 DUP3 ADD SWAP1 POP DUP2 DUP2 SUB PUSH0 DUP4 ADD MSTORE PUSH2 0x1CFA DUP2 PUSH2 0x1CC1 JUMP JUMPDEST SWAP1 POP SWAP2 SWAP1 POP JUMP JUMPDEST PUSH32 0x4E487B7100000000000000000000000000000000000000000000000000000000 PUSH0 MSTORE PUSH1 0x11 PUSH1 0x4 MSTORE PUSH1 0x24 PUSH0 REVERT JUMPDEST PUSH0 PUSH2 0x1D38 DUP3 PUSH2 0x1836 JUMP JUMPDEST SWAP2 POP PUSH2 0x1D43 DUP4 PUSH2 0x1836 JUMP JUMPDEST SWAP3 POP DUP3 DUP3 ADD SWAP1 POP DUP1 DUP3 GT ISZERO PUSH2 0x1D5B JUMPI PUSH2 0x1D5A PUSH2 0x1D01 JUMP JUMPDEST JUMPDEST SWAP3 SWAP2 POP POP JUMP JUMPDEST PUSH0 PUSH2 0x1D6B DUP3 PUSH2 0x1836 JUMP JUMPDEST SWAP2 POP PUSH2 0x1D76 DUP4 PUSH2 0x1836 JUMP JUMPDEST SWAP3 POP DUP3 DUP3 SUB SWAP1 POP DUP2 DUP2 GT ISZERO PUSH2 0x1D8E JUMPI PUSH2 0x1D8D PUSH2 0x1D01 JUMP JUMPDEST JUMPDEST SWAP3 SWAP2 POP POP JUMP JUMPDEST PUSH0 PUSH2 0x1D9E DUP3 PUSH2 0x1836 JUMP JUMPDEST SWAP2 POP PUSH2 0x1DA9 DUP4 PUSH2 0x1836 JUMP JUMPDEST SWAP3 POP DUP3 DUP3 MUL PUSH2 0x1DB7 DUP2 PUSH2 0x1836 JUMP JUMPDEST SWAP2 POP DUP3 DUP3 DIV DUP5 EQ DUP4 ISZERO OR PUSH2 0x1DCE JUMPI PUSH2 0x1DCD PUSH2 0x1D01 JUMP JUMPDEST JUMPDEST POP SWAP3 SWAP2 POP POP JUMP JUMPDEST PUSH32 0x4E487B7100000000000000000000000000000000000000000000000000000000 PUSH0 MSTORE PUSH1 0x12 PUSH1 0x4 MSTORE PUSH1 0x24 PUSH0 REVERT JUMPDEST PUSH0 PUSH2 0x1E0C DUP3 PUSH2 0x1836 JUMP JUMPDEST SWAP2 POP PUSH2 0x1E17 DUP4 PUSH2 0x1836 JUMP JUMPDEST SWAP3 POP DUP3 PUSH2 0x1E27 JUMPI PUSH2 0x1E26 PUSH2 0x1DD5 JUMP JUMPDEST JUMPDEST DUP3 DUP3 DIV SWAP1 POP SWAP3 SWAP2 POP POP JUMP JUMPDEST PUSH0 DUP2 SWAP1 POP SWAP2 SWAP1 POP JUMP JUMPDEST PUSH2 0x1E4C PUSH2 0x1E47 DUP3 PUSH2 0x1AD2 JUMP JUMPDEST PUSH2 0x1E32 JUMP JUMPDEST DUP3 MSTORE POP POP JUMP JUMPDEST PUSH0 DUP2 PUSH1 0x60 SHL SWAP1 POP SWAP2 SWAP1 POP JUMP JUMPDEST PUSH0 PUSH2 0x1E68 DUP3 PUSH2 0x1E52 JUMP JUMPDEST SWAP1 POP SWAP2 SWAP1 POP JUMP JUMPDEST PUSH0 PUSH2 0x1E79 DUP3 PUSH2 0x1E5E JUMP JUMPDEST SWAP1 POP SWAP2 SWAP1 POP JUMP JUMPDEST PUSH2 0x1E91 PUSH2 0x1E8C DUP3 PUSH2 0x196B JUMP JUMPDEST PUSH2 0x1E6F JUMP JUMPDEST DUP3 MSTORE POP POP JUMP JUMPDEST PUSH0 DUP2 SWAP1 POP SWAP2 SWAP1 POP JUMP JUMPDEST PUSH2 0x1EB1 PUSH2 0x1EAC DUP3 PUSH2 0x1836 JUMP JUMPDEST PUSH2 0x1E97 JUMP JUMPDEST DUP3 MSTORE POP POP JUMP JUMPDEST PUSH0 PUSH2 0x1EC2 DUP3 DUP7 PUSH2 0x1E3B JUMP JUMPDEST PUSH1 0x20 DUP3 ADD SWAP2 POP PUSH2 0x1ED2 DUP3 DUP6 PUSH2 0x1E80 JUMP JUMPDEST PUSH1 0x14 DUP3 ADD SWAP2 POP PUSH2 0x1EE2 DUP3 DUP5 PUSH2 0x1EA0 JUMP JUMPDEST PUSH1 0x20 DUP3 ADD SWAP2 POP DUP2 SWAP1 POP SWAP5 SWAP4 POP POP POP POP JUMP JUMPDEST PUSH32 0x4F727068616E65642E0000000000000000000000000000000000000000000000 PUSH0 DUP3 ADD MSTORE POP JUMP JUMPDEST PUSH0 PUSH2 0x1F27 PUSH1 0x9 DUP4 PUSH2 0x18C6 JUMP JUMPDEST SWAP2 POP PUSH2 0x1F32 DUP3 PUSH2 0x1EF3 JUMP JUMPDEST PUSH1 0x20 DUP3 ADD SWAP1 POP SWAP2 SWAP1 POP JUMP JUMPDEST PUSH0 PUSH1 0x20 DUP3 ADD SWAP1 POP DUP2 DUP2 SUB PUSH0 DUP4 ADD MSTORE PUSH2 0x1F54 DUP2 PUSH2 0x1F1B JUMP JUMPDEST SWAP1 POP SWAP2 SWAP1 POP JUMP JUMPDEST PUSH0 PUSH2 0x1F65 DUP3 PUSH2 0x1A9E JUMP JUMPDEST SWAP2 POP PUSH2 0x1F70 DUP4 PUSH2 0x1A9E JUMP JUMPDEST SWAP3 POP DUP3 DUP3 SUB SWAP1 POP PUSH1 0xFF DUP2 GT ISZERO PUSH2 0x1F89 JUMPI PUSH2 0x1F88 PUSH2 0x1D01 JUMP JUMPDEST JUMPDEST SWAP3 SWAP2 POP POP JUMP JUMPDEST PUSH0 PUSH2 0x1F99 DUP3 PUSH2 0x1A17 JUMP JUMPDEST SWAP2 POP PUSH0 DUP3 SUB PUSH2 0x1FAB JUMPI PUSH2 0x1FAA PUSH2 0x1D01 JUMP JUMPDEST JUMPDEST PUSH1 0x1 DUP3 SUB SWAP1 POP SWAP2 SWAP1 POP JUMP JUMPDEST PUSH32 0x4E487B7100000000000000000000000000000000000000000000000000000000 PUSH0 MSTORE PUSH1 0x32 PUSH1 0x4 MSTORE PUSH1 0x24 PUSH0 REVERT INVALID LOG2 PUSH5 0x6970667358 0x22 SLT KECCAK256 DIV PUSH18 0xBDCEC6EE824C13B57106C89AAAB187651D99 SSTORE PUSH6 0xBFACF737F42 SGT SWAP10 0xC0 SHL PUSH5 0x736F6C6343 STOP ADDMOD 0x1E STOP CALLER "
		},
		"gasEstimates": {
			"creation": {
				"codeDepositCost": "1643400",
				"executionCost": "infinite",
				"totalCost": "infinite"
			},
			"external": {
				"allowance(address,address)": "infinite",
				"approve(address,uint256)": "infinite",
				"balanceOf(address)": "2912",
				"clampMax()": "infinite",
				"clampMin()": "infinite",
				"currentTarget()": "infinite",
				"decimals()": "infinite",
				"description()": "infinite",
				"difficulty()": "2493",
				"epochDuration()": "infinite",
				"epochStack(uint256)": "infinite",
				"halvingCountdown()": "2600",
				"halvingInterval()": "infinite",
				"image()": "infinite",
				"initialTarget()": "infinite",
				"name()": "infinite",
				"parent()": "2492",
				"redeemFee()": "infinite",
				"redeemTokens(uint256)": "infinite",
				"reward()": "2515",
				"submitWork(bytes32,uint256)": "infinite",
				"symbol()": "infinite",
				"targetSpacing()": "infinite",
				"totalSupply()": "2471",
				"transfer(address,uint256)": "infinite",
				"transferFrom(address,address,uint256)": "infinite"
			},
			"internal": {
				"_burn(address,uint256)": "infinite",
				"_mint(address,uint256)": "infinite",
				"_updateCounters()": "infinite",
				"_updateDifficulty()": "infinite",
				"_validateWork(bytes32)": "infinite"
			}
		},
		"methodIdentifiers": {
			"allowance(address,address)": "dd62ed3e",
			"approve(address,uint256)": "095ea7b3",
			"balanceOf(address)": "70a08231",
			"clampMax()": "00b61a73",
			"clampMin()": "a27dfbdd",
			"currentTarget()": "39148c53",
			"decimals()": "313ce567",
			"description()": "7284e416",
			"difficulty()": "19cae462",
			"epochDuration()": "4ff0876a",
			"epochStack(uint256)": "010612db",
			"halvingCountdown()": "16f8ff88",
			"halvingInterval()": "6a47aa06",
			"image()": "f3ccaac0",
			"initialTarget()": "37ef60d4",
			"name()": "06fdde03",
			"parent()": "60f96a8f",
			"redeemFee()": "965fa21e",
			"redeemTokens(uint256)": "a6e158f8",
			"reward()": "228cb733",
			"submitWork(bytes32,uint256)": "57bbcf43",
			"symbol()": "95d89b41",
			"targetSpacing()": "0ed8cdc2",
			"totalSupply()": "18160ddd",
			"transfer(address,uint256)": "a9059cbb",
			"transferFrom(address,address,uint256)": "23b872dd"
		}
	},
	"abi": [
		{
			"inputs": [
				{
					"internalType": "string",
					"name": "_name",
					"type": "string"
				},
				{
					"internalType": "string",
					"name": "_symbol",
					"type": "string"
				},
				{
					"internalType": "string",
					"name": "_image",
					"type": "string"
				},
				{
					"internalType": "string",
					"name": "_description",
					"type": "string"
				},
				{
					"internalType": "uint256",
					"name": "_initialReward",
					"type": "uint256"
				},
				{
					"internalType": "uint32",
					"name": "_halvingInterval",
					"type": "uint32"
				},
				{
					"internalType": "uint32",
					"name": "_epochDuration",
					"type": "uint32"
				},
				{
					"internalType": "uint16",
					"name": "_targetSpacing",
					"type": "uint16"
				},
				{
					"internalType": "uint8",
					"name": "_redeemFee",
					"type": "uint8"
				}
			],
			"stateMutability": "nonpayable",
			"type": "constructor"
		},
		{
			"anonymous": false,
			"inputs": [
				{
					"indexed": true,
					"internalType": "address",
					"name": "owner",
					"type": "address"
				},
				{
					"indexed": true,
					"internalType": "address",
					"name": "spender",
					"type": "address"
				},
				{
					"indexed": false,
					"internalType": "uint256",
					"name": "value",
					"type": "uint256"
				}
			],
			"name": "Approval",
			"type": "event"
		},
		{
			"anonymous": false,
			"inputs": [
				{
					"indexed": true,
					"internalType": "address",
					"name": "from",
					"type": "address"
				},
				{
					"indexed": false,
					"internalType": "uint256",
					"name": "value",
					"type": "uint256"
				}
			],
			"name": "Burn",
			"type": "event"
		},
		{
			"anonymous": false,
			"inputs": [
				{
					"indexed": true,
					"internalType": "address",
					"name": "to",
					"type": "address"
				},
				{
					"indexed": false,
					"internalType": "uint256",
					"name": "value",
					"type": "uint256"
				}
			],
			"name": "Mint",
			"type": "event"
		},
		{
			"anonymous": false,
			"inputs": [
				{
					"indexed": true,
					"internalType": "address",
					"name": "from",
					"type": "address"
				},
				{
					"indexed": true,
					"internalType": "address",
					"name": "to",
					"type": "address"
				},
				{
					"indexed": false,
					"internalType": "uint256",
					"name": "value",
					"type": "uint256"
				}
			],
			"name": "Transfer",
			"type": "event"
		},
		{
			"inputs": [
				{
					"internalType": "address",
					"name": "",
					"type": "address"
				},
				{
					"internalType": "address",
					"name": "",
					"type": "address"
				}
			],
			"name": "allowance",
			"outputs": [
				{
					"internalType": "uint256",
					"name": "",
					"type": "uint256"
				}
			],
			"stateMutability": "view",
			"type": "function"
		},
		{
			"inputs": [
				{
					"internalType": "address",
					"name": "_spender",
					"type": "address"
				},
				{
					"internalType": "uint256",
					"name": "_value",
					"type": "uint256"
				}
			],
			"name": "approve",
			"outputs": [
				{
					"internalType": "bool",
					"name": "",
					"type": "bool"
				}
			],
			"stateMutability": "nonpayable",
			"type": "function"
		},
		{
			"inputs": [
				{
					"internalType": "address",
					"name": "",
					"type": "address"
				}
			],
			"name": "balanceOf",
			"outputs": [
				{
					"internalType": "uint256",
					"name": "",
					"type": "uint256"
				}
			],
			"stateMutability": "view",
			"type": "function"
		},
		{
			"inputs": [],
			"name": "clampMax",
			"outputs": [
				{
					"internalType": "uint16",
					"name": "",
					"type": "uint16"
				}
			],
			"stateMutability": "view",
			"type": "function"
		},
		{
			"inputs": [],
			"name": "clampMin",
			"outputs": [
				{
					"internalType": "uint16",
					"name": "",
					"type": "uint16"
				}
			],
			"stateMutability": "view",
			"type": "function"
		},
		{
			"inputs": [],
			"name": "currentTarget",
			"outputs": [
				{
					"internalType": "bytes32",
					"name": "",
					"type": "bytes32"
				}
			],
			"stateMutability": "view",
			"type": "function"
		},
		{
			"inputs": [],
			"name": "decimals",
			"outputs": [
				{
					"internalType": "uint8",
					"name": "",
					"type": "uint8"
				}
			],
			"stateMutability": "view",
			"type": "function"
		},
		{
			"inputs": [],
			"name": "description",
			"outputs": [
				{
					"internalType": "string",
					"name": "",
					"type": "string"
				}
			],
			"stateMutability": "view",
			"type": "function"
		},
		{
			"inputs": [],
			"name": "difficulty",
			"outputs": [
				{
					"internalType": "uint256",
					"name": "",
					"type": "uint256"
				}
			],
			"stateMutability": "view",
			"type": "function"
		},
		{
			"inputs": [],
			"name": "epochDuration",
			"outputs": [
				{
					"internalType": "uint32",
					"name": "",
					"type": "uint32"
				}
			],
			"stateMutability": "view",
			"type": "function"
		},
		{
			"inputs": [
				{
					"internalType": "uint256",
					"name": "",
					"type": "uint256"
				}
			],
			"name": "epochStack",
			"outputs": [
				{
					"internalType": "uint256",
					"name": "",
					"type": "uint256"
				}
			],
			"stateMutability": "view",
			"type": "function"
		},
		{
			"inputs": [],
			"name": "halvingCountdown",
			"outputs": [
				{
					"internalType": "uint32",
					"name": "",
					"type": "uint32"
				}
			],
			"stateMutability": "view",
			"type": "function"
		},
		{
			"inputs": [],
			"name": "halvingInterval",
			"outputs": [
				{
					"internalType": "uint32",
					"name": "",
					"type": "uint32"
				}
			],
			"stateMutability": "view",
			"type": "function"
		},
		{
			"inputs": [],
			"name": "image",
			"outputs": [
				{
					"internalType": "string",
					"name": "",
					"type": "string"
				}
			],
			"stateMutability": "view",
			"type": "function"
		},
		{
			"inputs": [],
			"name": "initialTarget",
			"outputs": [
				{
					"internalType": "bytes32",
					"name": "",
					"type": "bytes32"
				}
			],
			"stateMutability": "view",
			"type": "function"
		},
		{
			"inputs": [],
			"name": "name",
			"outputs": [
				{
					"internalType": "string",
					"name": "",
					"type": "string"
				}
			],
			"stateMutability": "view",
			"type": "function"
		},
		{
			"inputs": [],
			"name": "parent",
			"outputs": [
				{
					"internalType": "bytes32",
					"name": "",
					"type": "bytes32"
				}
			],
			"stateMutability": "view",
			"type": "function"
		},
		{
			"inputs": [],
			"name": "redeemFee",
			"outputs": [
				{
					"internalType": "uint8",
					"name": "",
					"type": "uint8"
				}
			],
			"stateMutability": "view",
			"type": "function"
		},
		{
			"inputs": [
				{
					"internalType": "uint256",
					"name": "_amount",
					"type": "uint256"
				}
			],
			"name": "redeemTokens",
			"outputs": [],
			"stateMutability": "nonpayable",
			"type": "function"
		},
		{
			"inputs": [],
			"name": "reward",
			"outputs": [
				{
					"internalType": "uint256",
					"name": "",
					"type": "uint256"
				}
			],
			"stateMutability": "view",
			"type": "function"
		},
		{
			"inputs": [
				{
					"internalType": "bytes32",
					"name": "_hash",
					"type": "bytes32"
				},
				{
					"internalType": "uint256",
					"name": "_nonce",
					"type": "uint256"
				}
			],
			"name": "submitWork",
			"outputs": [],
			"stateMutability": "payable",
			"type": "function"
		},
		{
			"inputs": [],
			"name": "symbol",
			"outputs": [
				{
					"internalType": "string",
					"name": "",
					"type": "string"
				}
			],
			"stateMutability": "view",
			"type": "function"
		},
		{
			"inputs": [],
			"name": "targetSpacing",
			"outputs": [
				{
					"internalType": "uint16",
					"name": "",
					"type": "uint16"
				}
			],
			"stateMutability": "view",
			"type": "function"
		},
		{
			"inputs": [],
			"name": "totalSupply",
			"outputs": [
				{
					"internalType": "uint256",
					"name": "",
					"type": "uint256"
				}
			],
			"stateMutability": "view",
			"type": "function"
		},
		{
			"inputs": [
				{
					"internalType": "address",
					"name": "_to",
					"type": "address"
				},
				{
					"internalType": "uint256",
					"name": "_value",
					"type": "uint256"
				}
			],
			"name": "transfer",
			"outputs": [
				{
					"internalType": "bool",
					"name": "",
					"type": "bool"
				}
			],
			"stateMutability": "nonpayable",
			"type": "function"
		},
		{
			"inputs": [
				{
					"internalType": "address",
					"name": "_from",
					"type": "address"
				},
				{
					"internalType": "address",
					"name": "_to",
					"type": "address"
				},
				{
					"internalType": "uint256",
					"name": "_value",
					"type": "uint256"
				}
			],
			"name": "transferFrom",
			"outputs": [
				{
					"internalType": "bool",
					"name": "",
					"type": "bool"
				}
			],
			"stateMutability": "nonpayable",
			"type": "function"
		}
	]
}